{
  "address": "0x7d1E59d09729ab9E90330718f53212b8F184d5fB",
  "abi": [
    {
      "inputs": [],
      "stateMutability": "nonpayable",
      "type": "constructor"
    },
    {
      "inputs": [
        {
          "internalType": "address",
          "name": "sender",
          "type": "address"
        },
        {
          "internalType": "uint256",
          "name": "tokenId",
          "type": "uint256"
        },
        {
          "internalType": "address",
          "name": "owner",
          "type": "address"
        }
      ],
      "name": "ERC721IncorrectOwner",
      "type": "error"
    },
    {
      "inputs": [
        {
          "internalType": "address",
          "name": "operator",
          "type": "address"
        },
        {
          "internalType": "uint256",
          "name": "tokenId",
          "type": "uint256"
        }
      ],
      "name": "ERC721InsufficientApproval",
      "type": "error"
    },
    {
      "inputs": [
        {
          "internalType": "address",
          "name": "approver",
          "type": "address"
        }
      ],
      "name": "ERC721InvalidApprover",
      "type": "error"
    },
    {
      "inputs": [
        {
          "internalType": "address",
          "name": "operator",
          "type": "address"
        }
      ],
      "name": "ERC721InvalidOperator",
      "type": "error"
    },
    {
      "inputs": [
        {
          "internalType": "address",
          "name": "owner",
          "type": "address"
        }
      ],
      "name": "ERC721InvalidOwner",
      "type": "error"
    },
    {
      "inputs": [
        {
          "internalType": "address",
          "name": "receiver",
          "type": "address"
        }
      ],
      "name": "ERC721InvalidReceiver",
      "type": "error"
    },
    {
      "inputs": [
        {
          "internalType": "address",
          "name": "sender",
          "type": "address"
        }
      ],
      "name": "ERC721InvalidSender",
      "type": "error"
    },
    {
      "inputs": [
        {
          "internalType": "uint256",
          "name": "tokenId",
          "type": "uint256"
        }
      ],
      "name": "ERC721NonexistentToken",
      "type": "error"
    },
    {
      "inputs": [
        {
          "internalType": "address",
          "name": "owner",
          "type": "address"
        }
      ],
      "name": "OwnableInvalidOwner",
      "type": "error"
    },
    {
      "inputs": [
        {
          "internalType": "address",
          "name": "account",
          "type": "address"
        }
      ],
      "name": "OwnableUnauthorizedAccount",
      "type": "error"
    },
    {
      "anonymous": false,
      "inputs": [
        {
          "indexed": true,
          "internalType": "address",
          "name": "owner",
          "type": "address"
        },
        {
          "indexed": true,
          "internalType": "address",
          "name": "approved",
          "type": "address"
        },
        {
          "indexed": true,
          "internalType": "uint256",
          "name": "tokenId",
          "type": "uint256"
        }
      ],
      "name": "Approval",
      "type": "event"
    },
    {
      "anonymous": false,
      "inputs": [
        {
          "indexed": true,
          "internalType": "address",
          "name": "owner",
          "type": "address"
        },
        {
          "indexed": true,
          "internalType": "address",
          "name": "operator",
          "type": "address"
        },
        {
          "indexed": false,
          "internalType": "bool",
          "name": "approved",
          "type": "bool"
        }
      ],
      "name": "ApprovalForAll",
      "type": "event"
    },
    {
      "anonymous": false,
      "inputs": [
        {
          "indexed": false,
          "internalType": "uint256",
          "name": "_fromTokenId",
          "type": "uint256"
        },
        {
          "indexed": false,
          "internalType": "uint256",
          "name": "_toTokenId",
          "type": "uint256"
        }
      ],
      "name": "BatchMetadataUpdate",
      "type": "event"
    },
    {
      "anonymous": false,
      "inputs": [
        {
          "indexed": false,
          "internalType": "uint256",
          "name": "_tokenId",
          "type": "uint256"
        }
      ],
      "name": "MetadataUpdate",
      "type": "event"
    },
    {
      "anonymous": false,
      "inputs": [
        {
          "indexed": true,
          "internalType": "address",
          "name": "previousOwner",
          "type": "address"
        },
        {
          "indexed": true,
          "internalType": "address",
          "name": "newOwner",
          "type": "address"
        }
      ],
      "name": "OwnershipTransferred",
      "type": "event"
    },
    {
      "anonymous": false,
      "inputs": [
        {
          "indexed": true,
          "internalType": "address",
          "name": "from",
          "type": "address"
        },
        {
          "indexed": true,
          "internalType": "address",
          "name": "to",
          "type": "address"
        },
        {
          "indexed": true,
          "internalType": "uint256",
          "name": "tokenId",
          "type": "uint256"
        }
      ],
      "name": "Transfer",
      "type": "event"
    },
    {
      "inputs": [
        {
          "internalType": "string",
          "name": "name",
          "type": "string"
        },
        {
          "internalType": "uint256",
          "name": "price",
          "type": "uint256"
        },
        {
          "internalType": "string",
          "name": "atcCode",
          "type": "string"
        },
        {
          "internalType": "string",
          "name": "imageUri",
          "type": "string"
        },
        {
          "internalType": "string",
          "name": "description",
          "type": "string"
        },
        {
          "internalType": "string",
          "name": "tokenUri",
          "type": "string"
        }
      ],
      "name": "addItem",
      "outputs": [],
      "stateMutability": "nonpayable",
      "type": "function"
    },
    {
      "inputs": [
        {
          "internalType": "address",
          "name": "to",
          "type": "address"
        },
        {
          "internalType": "uint256",
          "name": "tokenId",
          "type": "uint256"
        }
      ],
      "name": "approve",
      "outputs": [],
      "stateMutability": "nonpayable",
      "type": "function"
    },
    {
      "inputs": [
        {
          "internalType": "uint256",
          "name": "itemId",
          "type": "uint256"
        },
        {
          "internalType": "address",
          "name": "userAddress",
          "type": "address"
        }
      ],
      "name": "associateItemWithUser",
      "outputs": [],
      "stateMutability": "nonpayable",
      "type": "function"
    },
    {
      "inputs": [
        {
          "internalType": "address",
          "name": "owner",
          "type": "address"
        }
      ],
      "name": "balanceOf",
      "outputs": [
        {
          "internalType": "uint256",
          "name": "",
          "type": "uint256"
        }
      ],
      "stateMutability": "view",
      "type": "function"
    },
    {
      "inputs": [
        {
          "internalType": "address",
          "name": "",
          "type": "address"
        }
      ],
      "name": "customerTokens",
      "outputs": [
        {
          "internalType": "uint256",
          "name": "",
          "type": "uint256"
        }
      ],
      "stateMutability": "view",
      "type": "function"
    },
    {
      "inputs": [],
      "name": "getAllItems",
      "outputs": [
        {
          "components": [
            {
              "internalType": "uint256",
              "name": "id",
              "type": "uint256"
            },
            {
              "internalType": "string",
              "name": "name",
              "type": "string"
            },
            {
              "internalType": "uint256",
              "name": "price",
              "type": "uint256"
            },
            {
              "internalType": "string",
              "name": "atcCode",
              "type": "string"
            },
            {
              "internalType": "string",
              "name": "imageUri",
              "type": "string"
            },
            {
              "internalType": "string",
              "name": "description",
              "type": "string"
            },
            {
              "internalType": "string",
              "name": "tokenUri",
              "type": "string"
            }
          ],
          "internalType": "struct HealthItemPurchase.Item[]",
          "name": "",
          "type": "tuple[]"
        }
      ],
      "stateMutability": "view",
      "type": "function"
    },
    {
      "inputs": [
        {
          "internalType": "uint256",
          "name": "tokenId",
          "type": "uint256"
        }
      ],
      "name": "getApproved",
      "outputs": [
        {
          "internalType": "address",
          "name": "",
          "type": "address"
        }
      ],
      "stateMutability": "view",
      "type": "function"
    },
    {
      "inputs": [
        {
          "internalType": "uint256",
          "name": "receiptId",
          "type": "uint256"
        }
      ],
      "name": "getReceiptDetails",
      "outputs": [
        {
          "components": [
            {
              "internalType": "uint256",
              "name": "receiptId",
              "type": "uint256"
            },
            {
              "internalType": "address",
              "name": "buyer",
              "type": "address"
            },
            {
              "internalType": "uint256[]",
              "name": "itemIds",
              "type": "uint256[]"
            },
            {
              "internalType": "uint256",
              "name": "totalPrice",
              "type": "uint256"
            },
            {
              "internalType": "uint256",
              "name": "purchaseDate",
              "type": "uint256"
            },
            {
              "internalType": "string",
              "name": "tokenUri",
              "type": "string"
            }
          ],
          "internalType": "struct HealthItemPurchase.Receipt",
          "name": "",
          "type": "tuple"
        }
      ],
      "stateMutability": "view",
      "type": "function"
    },
    {
      "inputs": [
        {
          "internalType": "address",
          "name": "user",
          "type": "address"
        }
      ],
      "name": "getUserReceipts",
      "outputs": [
        {
          "internalType": "uint256[]",
          "name": "",
          "type": "uint256[]"
        }
      ],
      "stateMutability": "view",
      "type": "function"
    },
    {
      "inputs": [
        {
          "internalType": "address",
          "name": "owner",
          "type": "address"
        },
        {
          "internalType": "address",
          "name": "operator",
          "type": "address"
        }
      ],
      "name": "isApprovedForAll",
      "outputs": [
        {
          "internalType": "bool",
          "name": "",
          "type": "bool"
        }
      ],
      "stateMutability": "view",
      "type": "function"
    },
    {
      "inputs": [
        {
          "internalType": "uint256",
          "name": "",
          "type": "uint256"
        }
      ],
      "name": "itemToOwner",
      "outputs": [
        {
          "internalType": "address",
          "name": "",
          "type": "address"
        }
      ],
      "stateMutability": "view",
      "type": "function"
    },
    {
      "inputs": [
        {
          "internalType": "uint256",
          "name": "",
          "type": "uint256"
        }
      ],
      "name": "items",
      "outputs": [
        {
          "internalType": "uint256",
          "name": "id",
          "type": "uint256"
        },
        {
          "internalType": "string",
          "name": "name",
          "type": "string"
        },
        {
          "internalType": "uint256",
          "name": "price",
          "type": "uint256"
        },
        {
          "internalType": "string",
          "name": "atcCode",
          "type": "string"
        },
        {
          "internalType": "string",
          "name": "imageUri",
          "type": "string"
        },
        {
          "internalType": "string",
          "name": "description",
          "type": "string"
        },
        {
          "internalType": "string",
          "name": "tokenUri",
          "type": "string"
        }
      ],
      "stateMutability": "view",
      "type": "function"
    },
    {
      "inputs": [
        {
          "internalType": "address",
          "name": "recipient",
          "type": "address"
        },
        {
          "internalType": "uint256[]",
          "name": "itemIds",
          "type": "uint256[]"
        },
        {
          "internalType": "string",
          "name": "tokenUri",
          "type": "string"
        }
      ],
      "name": "mintReceipt",
      "outputs": [],
      "stateMutability": "nonpayable",
      "type": "function"
    },
    {
      "inputs": [],
      "name": "name",
      "outputs": [
        {
          "internalType": "string",
          "name": "",
          "type": "string"
        }
      ],
      "stateMutability": "view",
      "type": "function"
    },
    {
      "inputs": [],
      "name": "owner",
      "outputs": [
        {
          "internalType": "address",
          "name": "",
          "type": "address"
        }
      ],
      "stateMutability": "view",
      "type": "function"
    },
    {
      "inputs": [
        {
          "internalType": "uint256",
          "name": "tokenId",
          "type": "uint256"
        }
      ],
      "name": "ownerOf",
      "outputs": [
        {
          "internalType": "address",
          "name": "",
          "type": "address"
        }
      ],
      "stateMutability": "view",
      "type": "function"
    },
    {
      "inputs": [
        {
          "internalType": "uint256[]",
          "name": "itemIds",
          "type": "uint256[]"
        }
      ],
      "name": "purchaseItems",
      "outputs": [
        {
          "internalType": "bool",
          "name": "",
          "type": "bool"
        }
      ],
      "stateMutability": "payable",
      "type": "function"
    },
    {
      "inputs": [
        {
          "internalType": "uint256",
          "name": "",
          "type": "uint256"
        }
      ],
      "name": "receipts",
      "outputs": [
        {
          "internalType": "uint256",
          "name": "receiptId",
          "type": "uint256"
        },
        {
          "internalType": "address",
          "name": "buyer",
          "type": "address"
        },
        {
          "internalType": "uint256",
          "name": "totalPrice",
          "type": "uint256"
        },
        {
          "internalType": "uint256",
          "name": "purchaseDate",
          "type": "uint256"
        },
        {
          "internalType": "string",
          "name": "tokenUri",
          "type": "string"
        }
      ],
      "stateMutability": "view",
      "type": "function"
    },
    {
      "inputs": [],
      "name": "renounceOwnership",
      "outputs": [],
      "stateMutability": "nonpayable",
      "type": "function"
    },
    {
      "inputs": [
        {
          "internalType": "address",
          "name": "from",
          "type": "address"
        },
        {
          "internalType": "address",
          "name": "to",
          "type": "address"
        },
        {
          "internalType": "uint256",
          "name": "tokenId",
          "type": "uint256"
        }
      ],
      "name": "safeTransferFrom",
      "outputs": [],
      "stateMutability": "nonpayable",
      "type": "function"
    },
    {
      "inputs": [
        {
          "internalType": "address",
          "name": "from",
          "type": "address"
        },
        {
          "internalType": "address",
          "name": "to",
          "type": "address"
        },
        {
          "internalType": "uint256",
          "name": "tokenId",
          "type": "uint256"
        },
        {
          "internalType": "bytes",
          "name": "data",
          "type": "bytes"
        }
      ],
      "name": "safeTransferFrom",
      "outputs": [],
      "stateMutability": "nonpayable",
      "type": "function"
    },
    {
      "inputs": [
        {
          "internalType": "address",
          "name": "operator",
          "type": "address"
        },
        {
          "internalType": "bool",
          "name": "approved",
          "type": "bool"
        }
      ],
      "name": "setApprovalForAll",
      "outputs": [],
      "stateMutability": "nonpayable",
      "type": "function"
    },
    {
      "inputs": [
        {
          "internalType": "bytes4",
          "name": "interfaceId",
          "type": "bytes4"
        }
      ],
      "name": "supportsInterface",
      "outputs": [
        {
          "internalType": "bool",
          "name": "",
          "type": "bool"
        }
      ],
      "stateMutability": "view",
      "type": "function"
    },
    {
      "inputs": [],
      "name": "symbol",
      "outputs": [
        {
          "internalType": "string",
          "name": "",
          "type": "string"
        }
      ],
      "stateMutability": "view",
      "type": "function"
    },
    {
      "inputs": [
        {
          "internalType": "uint256",
          "name": "tokenId",
          "type": "uint256"
        }
      ],
      "name": "tokenURI",
      "outputs": [
        {
          "internalType": "string",
          "name": "",
          "type": "string"
        }
      ],
      "stateMutability": "view",
      "type": "function"
    },
    {
      "inputs": [
        {
          "internalType": "address",
          "name": "from",
          "type": "address"
        },
        {
          "internalType": "address",
          "name": "to",
          "type": "address"
        },
        {
          "internalType": "uint256",
          "name": "tokenId",
          "type": "uint256"
        }
      ],
      "name": "transferFrom",
      "outputs": [],
      "stateMutability": "nonpayable",
      "type": "function"
    },
    {
      "inputs": [
        {
          "internalType": "address",
          "name": "newOwner",
          "type": "address"
        }
      ],
      "name": "transferOwnership",
      "outputs": [],
      "stateMutability": "nonpayable",
      "type": "function"
    },
    {
      "inputs": [
        {
          "internalType": "address",
          "name": "",
          "type": "address"
        },
        {
          "internalType": "uint256",
          "name": "",
          "type": "uint256"
        }
      ],
      "name": "userReceipts",
      "outputs": [
        {
          "internalType": "uint256",
          "name": "",
          "type": "uint256"
        }
      ],
      "stateMutability": "view",
      "type": "function"
    },
    {
      "inputs": [],
      "name": "withdraw",
      "outputs": [],
      "stateMutability": "nonpayable",
      "type": "function"
    }
  ],
  "transactionHash": "0x08f98cccc3182aa7579cd80db8a5e9e8a4a1da59eb3a019a6301ddcee13f6477",
  "args": [],
  "numDeployments": 1,
  "solcInputHash": "6deab45bd73137f7cb9c3ba45a941336",
  "bytecode": "0x60806040523480156200001157600080fd5b50336040518060400160405280600d81526020017f4865616c74684974656d4e4654000000000000000000000000000000000000008152506040518060400160405280600581526020017f48494e4654000000000000000000000000000000000000000000000000000000815250816000908162000090919062000472565b508060019081620000a2919062000472565b505050600073ffffffffffffffffffffffffffffffffffffffff168173ffffffffffffffffffffffffffffffffffffffff16036200011a5760006040517f1e4fbdf70000000000000000000000000000000000000000000000000000000081526004016200011191906200059e565b60405180910390fd5b6200012b816200013260201b60201c565b50620005bb565b6000600760009054906101000a900473ffffffffffffffffffffffffffffffffffffffff16905081600760006101000a81548173ffffffffffffffffffffffffffffffffffffffff021916908373ffffffffffffffffffffffffffffffffffffffff1602179055508173ffffffffffffffffffffffffffffffffffffffff168173ffffffffffffffffffffffffffffffffffffffff167f8be0079c531659141344cd1fd0a4f28419497f9722a3daafe3b4186f6b6457e060405160405180910390a35050565b600081519050919050565b7f4e487b7100000000000000000000000000000000000000000000000000000000600052604160045260246000fd5b7f4e487b7100000000000000000000000000000000000000000000000000000000600052602260045260246000fd5b600060028204905060018216806200027a57607f821691505b60208210810362000290576200028f62000232565b5b50919050565b60008190508160005260206000209050919050565b60006020601f8301049050919050565b600082821b905092915050565b600060088302620002fa7fffffffffffffffffffffffffffffffffffffffffffffffffffffffffffffffff82620002bb565b620003068683620002bb565b95508019841693508086168417925050509392505050565b6000819050919050565b6000819050919050565b6000620003536200034d62000347846200031e565b62000328565b6200031e565b9050919050565b6000819050919050565b6200036f8362000332565b620003876200037e826200035a565b848454620002c8565b825550505050565b600090565b6200039e6200038f565b620003ab81848462000364565b505050565b5b81811015620003d357620003c760008262000394565b600181019050620003b1565b5050565b601f8211156200042257620003ec8162000296565b620003f784620002ab565b8101602085101562000407578190505b6200041f6200041685620002ab565b830182620003b0565b50505b505050565b600082821c905092915050565b6000620004476000198460080262000427565b1980831691505092915050565b600062000462838362000434565b9150826002028217905092915050565b6200047d82620001f8565b67ffffffffffffffff81111562000499576200049862000203565b5b620004a5825462000261565b620004b2828285620003d7565b600060209050601f831160018114620004ea5760008415620004d5578287015190505b620004e1858262000454565b86555062000551565b601f198416620004fa8662000296565b60005b828110156200052457848901518255600182019150602085019450602081019050620004fd565b8683101562000544578489015162000540601f89168262000434565b8355505b6001600288020188555050505b505050505050565b600073ffffffffffffffffffffffffffffffffffffffff82169050919050565b6000620005868262000559565b9050919050565b620005988162000579565b82525050565b6000602082019050620005b560008301846200058d565b92915050565b614caf80620005cb6000396000f3fe6080604052600436106101c25760003560e01c806372d7097b116100f7578063ac5c797711610095578063d3ff098e11610064578063d3ff098e146106ad578063e985e9c5146106d6578063f21220ca14610713578063f2fde38b1461073c576101c2565b8063ac5c7977146105c7578063b88d4fde14610604578063bfb231d21461062d578063c87b56dd14610670576101c2565b806395d89b41116100d157806395d89b41146104f95780639e19bb5914610524578063a22cb46514610561578063a843c5fe1461058a576101c2565b806372d7097b146104685780638da5cb5b146104a557806394dc3ae9146104d0576101c2565b80632a9f5ec3116101645780634ba1d6aa1161013e5780634ba1d6aa146103ac5780636352211e146103d757806370a0823114610414578063715018a614610451576101c2565b80632a9f5ec31461033c5780633ccfd60b1461036c57806342842e0e14610383576101c2565b8063095ea7b3116101a0578063095ea7b31461026c5780630f7ee1ec146102955780631a4d96cd146102d657806323b872dd14610313576101c2565b806301ffc9a7146101c757806306fdde0314610204578063081812fc1461022f575b600080fd5b3480156101d357600080fd5b506101ee60048036038101906101e991906134b0565b610765565b6040516101fb91906134f8565b60405180910390f35b34801561021057600080fd5b506102196107c6565b60405161022691906135a3565b60405180910390f35b34801561023b57600080fd5b50610256600480360381019061025191906135fb565b610858565b6040516102639190613669565b60405180910390f35b34801561027857600080fd5b50610293600480360381019061028e91906136b0565b610874565b005b3480156102a157600080fd5b506102bc60048036038101906102b791906135fb565b61088a565b6040516102cd9594939291906136ff565b60405180910390f35b3480156102e257600080fd5b506102fd60048036038101906102f891906135fb565b610968565b60405161030a9190613669565b60405180910390f35b34801561031f57600080fd5b5061033a60048036038101906103359190613759565b61099b565b005b610356600480360381019061035191906138f4565b610a9d565b60405161036391906134f8565b60405180910390f35b34801561037857600080fd5b50610381610e18565b005b34801561038f57600080fd5b506103aa60048036038101906103a59190613759565b610eb9565b005b3480156103b857600080fd5b506103c1610ed9565b6040516103ce9190613b10565b60405180910390f35b3480156103e357600080fd5b506103fe60048036038101906103f991906135fb565b611296565b60405161040b9190613669565b60405180910390f35b34801561042057600080fd5b5061043b60048036038101906104369190613b32565b6112a8565b6040516104489190613b5f565b60405180910390f35b34801561045d57600080fd5b50610466611362565b005b34801561047457600080fd5b5061048f600480360381019061048a91906135fb565b611376565b60405161049c9190613cc8565b60405180910390f35b3480156104b157600080fd5b506104ba611501565b6040516104c79190613669565b60405180910390f35b3480156104dc57600080fd5b506104f760048036038101906104f29190613d9f565b61152b565b005b34801561050557600080fd5b5061050e611926565b60405161051b91906135a3565b60405180910390f35b34801561053057600080fd5b5061054b60048036038101906105469190613b32565b6119b8565b6040516105589190613e99565b60405180910390f35b34801561056d57600080fd5b5061058860048036038101906105839190613ee7565b611a4f565b005b34801561059657600080fd5b506105b160048036038101906105ac91906136b0565b611a65565b6040516105be9190613b5f565b60405180910390f35b3480156105d357600080fd5b506105ee60048036038101906105e99190613b32565b611a96565b6040516105fb9190613b5f565b60405180910390f35b34801561061057600080fd5b5061062b60048036038101906106269190613fc8565b611aae565b005b34801561063957600080fd5b50610654600480360381019061064f91906135fb565b611acb565b604051610667979695949392919061404b565b60405180910390f35b34801561067c57600080fd5b50610697600480360381019061069291906135fb565b611db5565b6040516106a491906135a3565b60405180910390f35b3480156106b957600080fd5b506106d460048036038101906106cf91906140dd565b611ec8565b005b3480156106e257600080fd5b506106fd60048036038101906106f891906141f6565b611fde565b60405161070a91906134f8565b60405180910390f35b34801561071f57600080fd5b5061073a60048036038101906107359190614236565b612072565b005b34801561074857600080fd5b50610763600480360381019061075e9190613b32565b612129565b005b6000634906490660e01b7bffffffffffffffffffffffffffffffffffffffffffffffffffffffff1916827bffffffffffffffffffffffffffffffffffffffffffffffffffffffff191614806107bf57506107be826121af565b5b9050919050565b6060600080546107d5906142a5565b80601f0160208091040260200160405190810160405280929190818152602001828054610801906142a5565b801561084e5780601f106108235761010080835404028352916020019161084e565b820191906000526020600020905b81548152906001019060200180831161083157829003601f168201915b5050505050905090565b600061086382612291565b5061086d82612319565b9050919050565b6108868282610881612356565b61235e565b5050565b600b6020528060005260406000206000915090508060000154908060010160009054906101000a900473ffffffffffffffffffffffffffffffffffffffff16908060030154908060040154908060050180546108e5906142a5565b80601f0160208091040260200160405190810160405280929190818152602001828054610911906142a5565b801561095e5780601f106109335761010080835404028352916020019161095e565b820191906000526020600020905b81548152906001019060200180831161094157829003601f168201915b5050505050905085565b600d6020528060005260406000206000915054906101000a900473ffffffffffffffffffffffffffffffffffffffff1681565b600073ffffffffffffffffffffffffffffffffffffffff168273ffffffffffffffffffffffffffffffffffffffff1603610a0d5760006040517f64a0ae92000000000000000000000000000000000000000000000000000000008152600401610a049190613669565b60405180910390fd5b6000610a218383610a1c612356565b612370565b90508373ffffffffffffffffffffffffffffffffffffffff168173ffffffffffffffffffffffffffffffffffffffff1614610a97578382826040517f64283d7b000000000000000000000000000000000000000000000000000000008152600401610a8e939291906142d6565b60405180910390fd5b50505050565b6000806000905060005b8351811015610bb6573373ffffffffffffffffffffffffffffffffffffffff16600d6000868481518110610ade57610add61430d565b5b6020026020010151815260200190815260200160002060009054906101000a900473ffffffffffffffffffffffffffffffffffffffff1673ffffffffffffffffffffffffffffffffffffffff1614610b6b576040517f08c379a0000000000000000000000000000000000000000000000000000000008152600401610b62906143ae565b60405180910390fd5b600a6000858381518110610b8257610b8161430d565b5b602002602001015181526020019081526020016000206002015482610ba791906143fd565b91508080600101915050610aa7565b506005600f60003373ffffffffffffffffffffffffffffffffffffffff1673ffffffffffffffffffffffffffffffffffffffff1681526020019081526020016000205410610c705760006064600a83610c0f9190614431565b610c1991906144a2565b90508082610c2791906144d3565b91506000600f60003373ffffffffffffffffffffffffffffffffffffffff1673ffffffffffffffffffffffffffffffffffffffff16815260200190815260200160002081905550505b80341015610cb3576040517f08c379a0000000000000000000000000000000000000000000000000000000008152600401610caa90614579565b60405180910390fd5b60005b8351811015610d6457610ceb610cca611501565b33868481518110610cde57610cdd61430d565b5b602002602001015161258a565b33600d6000868481518110610d0357610d0261430d565b5b6020026020010151815260200190815260200160002060006101000a81548173ffffffffffffffffffffffffffffffffffffffff021916908373ffffffffffffffffffffffffffffffffffffffff1602179055508080600101915050610cb6565b5080600e60003373ffffffffffffffffffffffffffffffffffffffff1673ffffffffffffffffffffffffffffffffffffffff168152602001908152602001600020819055506611c37937e08000341115610e0e57600f60003373ffffffffffffffffffffffffffffffffffffffff1673ffffffffffffffffffffffffffffffffffffffff1681526020019081526020016000206000815480929190610e0890614599565b91905055505b6001915050919050565b610e206126f7565b600047905060008111610e68576040517f08c379a0000000000000000000000000000000000000000000000000000000008152600401610e5f9061462d565b60405180910390fd5b610e70611501565b73ffffffffffffffffffffffffffffffffffffffff166108fc829081150290604051600060405180830381858888f19350505050158015610eb5573d6000803e3d6000fd5b5050565b610ed483838360405180602001604052806000815250611aae565b505050565b6060600060095467ffffffffffffffff811115610ef957610ef86137b1565b5b604051908082528060200260200182016040528015610f3257816020015b610f1f613351565b815260200190600190039081610f175790505b5090506000600190505b600954811161128e57600a60008281526020019081526020016000206040518060e001604052908160008201548152602001600182018054610f7d906142a5565b80601f0160208091040260200160405190810160405280929190818152602001828054610fa9906142a5565b8015610ff65780601f10610fcb57610100808354040283529160200191610ff6565b820191906000526020600020905b815481529060010190602001808311610fd957829003601f168201915b5050505050815260200160028201548152602001600382018054611019906142a5565b80601f0160208091040260200160405190810160405280929190818152602001828054611045906142a5565b80156110925780601f1061106757610100808354040283529160200191611092565b820191906000526020600020905b81548152906001019060200180831161107557829003601f168201915b505050505081526020016004820180546110ab906142a5565b80601f01602080910402602001604051908101604052809291908181526020018280546110d7906142a5565b80156111245780601f106110f957610100808354040283529160200191611124565b820191906000526020600020905b81548152906001019060200180831161110757829003601f168201915b5050505050815260200160058201805461113d906142a5565b80601f0160208091040260200160405190810160405280929190818152602001828054611169906142a5565b80156111b65780601f1061118b576101008083540402835291602001916111b6565b820191906000526020600020905b81548152906001019060200180831161119957829003601f168201915b505050505081526020016006820180546111cf906142a5565b80601f01602080910402602001604051908101604052809291908181526020018280546111fb906142a5565b80156112485780601f1061121d57610100808354040283529160200191611248565b820191906000526020600020905b81548152906001019060200180831161122b57829003601f168201915b5050505050815250508260018361125f91906144d3565b815181106112705761126f61430d565b5b6020026020010181905250808061128690614599565b915050610f3c565b508091505090565b60006112a182612291565b9050919050565b60008073ffffffffffffffffffffffffffffffffffffffff168273ffffffffffffffffffffffffffffffffffffffff160361131b5760006040517f89c62b640000000000000000000000000000000000000000000000000000000081526004016113129190613669565b60405180910390fd5b600360008373ffffffffffffffffffffffffffffffffffffffff1673ffffffffffffffffffffffffffffffffffffffff168152602001908152602001600020549050919050565b61136a6126f7565b611374600061277e565b565b61137e61338e565b600b60008381526020019081526020016000206040518060c0016040529081600082015481526020016001820160009054906101000a900473ffffffffffffffffffffffffffffffffffffffff1673ffffffffffffffffffffffffffffffffffffffff1673ffffffffffffffffffffffffffffffffffffffff1681526020016002820180548060200260200160405190810160405280929190818152602001828054801561144b57602002820191906000526020600020905b815481526020019060010190808311611437575b505050505081526020016003820154815260200160048201548152602001600582018054611478906142a5565b80601f01602080910402602001604051908101604052809291908181526020018280546114a4906142a5565b80156114f15780601f106114c6576101008083540402835291602001916114f1565b820191906000526020600020905b8154815290600101906020018083116114d457829003601f168201915b5050505050815250509050919050565b6000600760009054906101000a900473ffffffffffffffffffffffffffffffffffffffff16905090565b6115336126f7565b6000825111611577576040517f08c379a000000000000000000000000000000000000000000000000000000000815260040161156e90614699565b60405180910390fd5b600073ffffffffffffffffffffffffffffffffffffffff168373ffffffffffffffffffffffffffffffffffffffff16036115e6576040517f08c379a00000000000000000000000000000000000000000000000000000000081526004016115dd90614705565b60405180910390fd5b60005b82518110156116ba578373ffffffffffffffffffffffffffffffffffffffff16600d60008584815181106116205761161f61430d565b5b6020026020010151815260200190815260200160002060009054906101000a900473ffffffffffffffffffffffffffffffffffffffff1673ffffffffffffffffffffffffffffffffffffffff16146116ad576040517f08c379a00000000000000000000000000000000000000000000000000000000081526004016116a490614771565b60405180910390fd5b80806001019150506115e9565b506000600e60008573ffffffffffffffffffffffffffffffffffffffff1673ffffffffffffffffffffffffffffffffffffffff16815260200190815260200160002054905060008111611742576040517f08c379a000000000000000000000000000000000000000000000000000000000815260040161173990614803565b60405180910390fd5b6008600081548092919061175590614599565b91905055506000600854620f424061176d91906143fd565b90506040518060c001604052808281526020018673ffffffffffffffffffffffffffffffffffffffff16815260200185815260200183815260200142815260200184815250600b60008381526020019081526020016000206000820151816000015560208201518160010160006101000a81548173ffffffffffffffffffffffffffffffffffffffff021916908373ffffffffffffffffffffffffffffffffffffffff16021790555060408201518160020190805190602001906118329291906133da565b50606082015181600301556080820151816004015560a082015181600501908161185c91906149cf565b50905050600c60008673ffffffffffffffffffffffffffffffffffffffff1673ffffffffffffffffffffffffffffffffffffffff1681526020019081526020016000208190806001815401808255809150506001900390600052602060002001600090919091909150556118d08582612844565b6118da818461293d565b6000600e60008773ffffffffffffffffffffffffffffffffffffffff1673ffffffffffffffffffffffffffffffffffffffff168152602001908152602001600020819055505050505050565b606060018054611935906142a5565b80601f0160208091040260200160405190810160405280929190818152602001828054611961906142a5565b80156119ae5780601f10611983576101008083540402835291602001916119ae565b820191906000526020600020905b81548152906001019060200180831161199157829003601f168201915b5050505050905090565b6060600c60008373ffffffffffffffffffffffffffffffffffffffff1673ffffffffffffffffffffffffffffffffffffffff168152602001908152602001600020805480602002602001604051908101604052809291908181526020018280548015611a4357602002820191906000526020600020905b815481526020019060010190808311611a2f575b50505050509050919050565b611a61611a5a612356565b8383612999565b5050565b600c6020528160005260406000208181548110611a8157600080fd5b90600052602060002001600091509150505481565b600f6020528060005260406000206000915090505481565b611ab984848461099b565b611ac584848484612b08565b50505050565b600a602052806000526040600020600091509050806000015490806001018054611af4906142a5565b80601f0160208091040260200160405190810160405280929190818152602001828054611b20906142a5565b8015611b6d5780601f10611b4257610100808354040283529160200191611b6d565b820191906000526020600020905b815481529060010190602001808311611b5057829003601f168201915b505050505090806002015490806003018054611b88906142a5565b80601f0160208091040260200160405190810160405280929190818152602001828054611bb4906142a5565b8015611c015780601f10611bd657610100808354040283529160200191611c01565b820191906000526020600020905b815481529060010190602001808311611be457829003601f168201915b505050505090806004018054611c16906142a5565b80601f0160208091040260200160405190810160405280929190818152602001828054611c42906142a5565b8015611c8f5780601f10611c6457610100808354040283529160200191611c8f565b820191906000526020600020905b815481529060010190602001808311611c7257829003601f168201915b505050505090806005018054611ca4906142a5565b80601f0160208091040260200160405190810160405280929190818152602001828054611cd0906142a5565b8015611d1d5780601f10611cf257610100808354040283529160200191611d1d565b820191906000526020600020905b815481529060010190602001808311611d0057829003601f168201915b505050505090806006018054611d32906142a5565b80601f0160208091040260200160405190810160405280929190818152602001828054611d5e906142a5565b8015611dab5780601f10611d8057610100808354040283529160200191611dab565b820191906000526020600020905b815481529060010190602001808311611d8e57829003601f168201915b5050505050905087565b6060611dc082612291565b506000600660008481526020019081526020016000208054611de1906142a5565b80601f0160208091040260200160405190810160405280929190818152602001828054611e0d906142a5565b8015611e5a5780601f10611e2f57610100808354040283529160200191611e5a565b820191906000526020600020905b815481529060010190602001808311611e3d57829003601f168201915b505050505090506000611e6b612cbf565b90506000815103611e80578192505050611ec3565b600082511115611eb5578082604051602001611e9d929190614add565b60405160208183030381529060405292505050611ec3565b611ebe84612cd6565b925050505b919050565b611ed06126f7565b60096000815480929190611ee390614599565b91905055506040518060e00160405280600954815260200187815260200186815260200185815260200184815260200183815260200182815250600a60006009548152602001908152602001600020600082015181600001556020820151816001019081611f5191906149cf565b50604082015181600201556060820151816003019081611f7191906149cf565b506080820151816004019081611f8791906149cf565b5060a0820151816005019081611f9d91906149cf565b5060c0820151816006019081611fb391906149cf565b50905050611fca611fc2611501565b600954612844565b611fd66009548261293d565b505050505050565b6000600560008473ffffffffffffffffffffffffffffffffffffffff1673ffffffffffffffffffffffffffffffffffffffff16815260200190815260200160002060008373ffffffffffffffffffffffffffffffffffffffff1673ffffffffffffffffffffffffffffffffffffffff16815260200190815260200160002060009054906101000a900460ff16905092915050565b61207a6126f7565b6000600a600084815260200190815260200160002060000154036120d3576040517f08c379a00000000000000000000000000000000000000000000000000000000081526004016120ca90614b4d565b60405180910390fd5b80600d600084815260200190815260200160002060006101000a81548173ffffffffffffffffffffffffffffffffffffffff021916908373ffffffffffffffffffffffffffffffffffffffff1602179055505050565b6121316126f7565b600073ffffffffffffffffffffffffffffffffffffffff168173ffffffffffffffffffffffffffffffffffffffff16036121a35760006040517f1e4fbdf700000000000000000000000000000000000000000000000000000000815260040161219a9190613669565b60405180910390fd5b6121ac8161277e565b50565b60007f80ac58cd000000000000000000000000000000000000000000000000000000007bffffffffffffffffffffffffffffffffffffffffffffffffffffffff1916827bffffffffffffffffffffffffffffffffffffffffffffffffffffffff1916148061227a57507f5b5e139f000000000000000000000000000000000000000000000000000000007bffffffffffffffffffffffffffffffffffffffffffffffffffffffff1916827bffffffffffffffffffffffffffffffffffffffffffffffffffffffff1916145b8061228a575061228982612d3f565b5b9050919050565b60008061229d83612da9565b9050600073ffffffffffffffffffffffffffffffffffffffff168173ffffffffffffffffffffffffffffffffffffffff160361231057826040517f7e2732890000000000000000000000000000000000000000000000000000000081526004016123079190613b5f565b60405180910390fd5b80915050919050565b60006004600083815260200190815260200160002060009054906101000a900473ffffffffffffffffffffffffffffffffffffffff169050919050565b600033905090565b61236b8383836001612de6565b505050565b60008061237c84612da9565b9050600073ffffffffffffffffffffffffffffffffffffffff168373ffffffffffffffffffffffffffffffffffffffff16146123be576123bd818486612fab565b5b600073ffffffffffffffffffffffffffffffffffffffff168173ffffffffffffffffffffffffffffffffffffffff161461244f57612400600085600080612de6565b6001600360008373ffffffffffffffffffffffffffffffffffffffff1673ffffffffffffffffffffffffffffffffffffffff168152602001908152602001600020600082825403925050819055505b600073ffffffffffffffffffffffffffffffffffffffff168573ffffffffffffffffffffffffffffffffffffffff16146124d2576001600360008773ffffffffffffffffffffffffffffffffffffffff1673ffffffffffffffffffffffffffffffffffffffff168152602001908152602001600020600082825401925050819055505b846002600086815260200190815260200160002060006101000a81548173ffffffffffffffffffffffffffffffffffffffff021916908373ffffffffffffffffffffffffffffffffffffffff160217905550838573ffffffffffffffffffffffffffffffffffffffff168273ffffffffffffffffffffffffffffffffffffffff167fddf252ad1be2c89b69c2b068fc378daa952ba7f163c4a11628f55a4df523b3ef60405160405180910390a4809150509392505050565b600073ffffffffffffffffffffffffffffffffffffffff168273ffffffffffffffffffffffffffffffffffffffff16036125fc5760006040517f64a0ae920000000000000000000000000000000000000000000000000000000081526004016125f39190613669565b60405180910390fd5b600061260a83836000612370565b9050600073ffffffffffffffffffffffffffffffffffffffff168173ffffffffffffffffffffffffffffffffffffffff160361267d57816040517f7e2732890000000000000000000000000000000000000000000000000000000081526004016126749190613b5f565b60405180910390fd5b8373ffffffffffffffffffffffffffffffffffffffff168173ffffffffffffffffffffffffffffffffffffffff16146126f1578382826040517f64283d7b0000000000000000000000000000000000000000000000000000000081526004016126e8939291906142d6565b60405180910390fd5b50505050565b6126ff612356565b73ffffffffffffffffffffffffffffffffffffffff1661271d611501565b73ffffffffffffffffffffffffffffffffffffffff161461277c57612740612356565b6040517f118cdaa70000000000000000000000000000000000000000000000000000000081526004016127739190613669565b60405180910390fd5b565b6000600760009054906101000a900473ffffffffffffffffffffffffffffffffffffffff16905081600760006101000a81548173ffffffffffffffffffffffffffffffffffffffff021916908373ffffffffffffffffffffffffffffffffffffffff1602179055508173ffffffffffffffffffffffffffffffffffffffff168173ffffffffffffffffffffffffffffffffffffffff167f8be0079c531659141344cd1fd0a4f28419497f9722a3daafe3b4186f6b6457e060405160405180910390a35050565b600073ffffffffffffffffffffffffffffffffffffffff168273ffffffffffffffffffffffffffffffffffffffff16036128b65760006040517f64a0ae920000000000000000000000000000000000000000000000000000000081526004016128ad9190613669565b60405180910390fd5b60006128c483836000612370565b9050600073ffffffffffffffffffffffffffffffffffffffff168173ffffffffffffffffffffffffffffffffffffffff16146129385760006040517f73c6ac6e00000000000000000000000000000000000000000000000000000000815260040161292f9190613669565b60405180910390fd5b505050565b8060066000848152602001908152602001600020908161295d91906149cf565b507ff8e1a15aba9398e019f0b49df1a4fde98ee17ae345cb5f6b5e2c27f5033e8ce78260405161298d9190613b5f565b60405180910390a15050565b600073ffffffffffffffffffffffffffffffffffffffff168273ffffffffffffffffffffffffffffffffffffffff1603612a0a57816040517f5b08ba18000000000000000000000000000000000000000000000000000000008152600401612a019190613669565b60405180910390fd5b80600560008573ffffffffffffffffffffffffffffffffffffffff1673ffffffffffffffffffffffffffffffffffffffff16815260200190815260200160002060008473ffffffffffffffffffffffffffffffffffffffff1673ffffffffffffffffffffffffffffffffffffffff16815260200190815260200160002060006101000a81548160ff0219169083151502179055508173ffffffffffffffffffffffffffffffffffffffff168373ffffffffffffffffffffffffffffffffffffffff167f17307eab39ab6107e8899845ad3d59bd9653f200f220920489ca2b5937696c3183604051612afb91906134f8565b60405180910390a3505050565b60008373ffffffffffffffffffffffffffffffffffffffff163b1115612cb9578273ffffffffffffffffffffffffffffffffffffffff1663150b7a02612b4c612356565b8685856040518563ffffffff1660e01b8152600401612b6e9493929190614bc2565b6020604051808303816000875af1925050508015612baa57506040513d601f19601f82011682018060405250810190612ba79190614c23565b60015b612c2e573d8060008114612bda576040519150601f19603f3d011682016040523d82523d6000602084013e612bdf565b606091505b506000815103612c2657836040517f64a0ae92000000000000000000000000000000000000000000000000000000008152600401612c1d9190613669565b60405180910390fd5b805181602001fd5b63150b7a0260e01b7bffffffffffffffffffffffffffffffffffffffffffffffffffffffff1916817bffffffffffffffffffffffffffffffffffffffffffffffffffffffff191614612cb757836040517f64a0ae92000000000000000000000000000000000000000000000000000000008152600401612cae9190613669565b60405180910390fd5b505b50505050565b606060405180602001604052806000815250905090565b6060612ce182612291565b506000612cec612cbf565b90506000815111612d0c5760405180602001604052806000815250612d37565b80612d168461306f565b604051602001612d27929190614add565b6040516020818303038152906040525b915050919050565b60007f01ffc9a7000000000000000000000000000000000000000000000000000000007bffffffffffffffffffffffffffffffffffffffffffffffffffffffff1916827bffffffffffffffffffffffffffffffffffffffffffffffffffffffff1916149050919050565b60006002600083815260200190815260200160002060009054906101000a900473ffffffffffffffffffffffffffffffffffffffff169050919050565b8080612e1f5750600073ffffffffffffffffffffffffffffffffffffffff168273ffffffffffffffffffffffffffffffffffffffff1614155b15612f53576000612e2f84612291565b9050600073ffffffffffffffffffffffffffffffffffffffff168373ffffffffffffffffffffffffffffffffffffffff1614158015612e9a57508273ffffffffffffffffffffffffffffffffffffffff168173ffffffffffffffffffffffffffffffffffffffff1614155b8015612ead5750612eab8184611fde565b155b15612eef57826040517fa9fbf51f000000000000000000000000000000000000000000000000000000008152600401612ee69190613669565b60405180910390fd5b8115612f5157838573ffffffffffffffffffffffffffffffffffffffff168273ffffffffffffffffffffffffffffffffffffffff167f8c5be1e5ebec7d5bd14f71427d1e84f3dd0314c0f7b2291e5b200ac8c7c3b92560405160405180910390a45b505b836004600085815260200190815260200160002060006101000a81548173ffffffffffffffffffffffffffffffffffffffff021916908373ffffffffffffffffffffffffffffffffffffffff16021790555050505050565b612fb683838361313d565b61306a57600073ffffffffffffffffffffffffffffffffffffffff168373ffffffffffffffffffffffffffffffffffffffff160361302b57806040517f7e2732890000000000000000000000000000000000000000000000000000000081526004016130229190613b5f565b60405180910390fd5b81816040517f177e802f000000000000000000000000000000000000000000000000000000008152600401613061929190614c50565b60405180910390fd5b505050565b60606000600161307e846131fe565b01905060008167ffffffffffffffff81111561309d5761309c6137b1565b5b6040519080825280601f01601f1916602001820160405280156130cf5781602001600182028036833780820191505090505b509050600082602001820190505b600115613132578080600190039150507f3031323334353637383961626364656600000000000000000000000000000000600a86061a8153600a858161312657613125614473565b5b049450600085036130dd575b819350505050919050565b60008073ffffffffffffffffffffffffffffffffffffffff168373ffffffffffffffffffffffffffffffffffffffff16141580156131f557508273ffffffffffffffffffffffffffffffffffffffff168473ffffffffffffffffffffffffffffffffffffffff1614806131b657506131b58484611fde565b5b806131f457508273ffffffffffffffffffffffffffffffffffffffff166131dc83612319565b73ffffffffffffffffffffffffffffffffffffffff16145b5b90509392505050565b600080600090507a184f03e93ff9f4daa797ed6e38ed64bf6a1f010000000000000000831061325c577a184f03e93ff9f4daa797ed6e38ed64bf6a1f010000000000000000838161325257613251614473565b5b0492506040810190505b6d04ee2d6d415b85acef81000000008310613299576d04ee2d6d415b85acef8100000000838161328f5761328e614473565b5b0492506020810190505b662386f26fc1000083106132c857662386f26fc1000083816132be576132bd614473565b5b0492506010810190505b6305f5e10083106132f1576305f5e10083816132e7576132e6614473565b5b0492506008810190505b612710831061331657612710838161330c5761330b614473565b5b0492506004810190505b60648310613339576064838161332f5761332e614473565b5b0492506002810190505b600a8310613348576001810190505b80915050919050565b6040518060e00160405280600081526020016060815260200160008152602001606081526020016060815260200160608152602001606081525090565b6040518060c0016040528060008152602001600073ffffffffffffffffffffffffffffffffffffffff168152602001606081526020016000815260200160008152602001606081525090565b828054828255906000526020600020908101928215613416579160200282015b828111156134155782518255916020019190600101906133fa565b5b5090506134239190613427565b5090565b5b80821115613440576000816000905550600101613428565b5090565b6000604051905090565b600080fd5b600080fd5b60007fffffffff0000000000000000000000000000000000000000000000000000000082169050919050565b61348d81613458565b811461349857600080fd5b50565b6000813590506134aa81613484565b92915050565b6000602082840312156134c6576134c561344e565b5b60006134d48482850161349b565b91505092915050565b60008115159050919050565b6134f2816134dd565b82525050565b600060208201905061350d60008301846134e9565b92915050565b600081519050919050565b600082825260208201905092915050565b60005b8381101561354d578082015181840152602081019050613532565b60008484015250505050565b6000601f19601f8301169050919050565b600061357582613513565b61357f818561351e565b935061358f81856020860161352f565b61359881613559565b840191505092915050565b600060208201905081810360008301526135bd818461356a565b905092915050565b6000819050919050565b6135d8816135c5565b81146135e357600080fd5b50565b6000813590506135f5816135cf565b92915050565b6000602082840312156136115761361061344e565b5b600061361f848285016135e6565b91505092915050565b600073ffffffffffffffffffffffffffffffffffffffff82169050919050565b600061365382613628565b9050919050565b61366381613648565b82525050565b600060208201905061367e600083018461365a565b92915050565b61368d81613648565b811461369857600080fd5b50565b6000813590506136aa81613684565b92915050565b600080604083850312156136c7576136c661344e565b5b60006136d58582860161369b565b92505060206136e6858286016135e6565b9150509250929050565b6136f9816135c5565b82525050565b600060a08201905061371460008301886136f0565b613721602083018761365a565b61372e60408301866136f0565b61373b60608301856136f0565b818103608083015261374d818461356a565b90509695505050505050565b6000806000606084860312156137725761377161344e565b5b60006137808682870161369b565b93505060206137918682870161369b565b92505060406137a2868287016135e6565b9150509250925092565b600080fd5b7f4e487b7100000000000000000000000000000000000000000000000000000000600052604160045260246000fd5b6137e982613559565b810181811067ffffffffffffffff82111715613808576138076137b1565b5b80604052505050565b600061381b613444565b905061382782826137e0565b919050565b600067ffffffffffffffff821115613847576138466137b1565b5b602082029050602081019050919050565b600080fd5b600061387061386b8461382c565b613811565b9050808382526020820190506020840283018581111561389357613892613858565b5b835b818110156138bc57806138a888826135e6565b845260208401935050602081019050613895565b5050509392505050565b600082601f8301126138db576138da6137ac565b5b81356138eb84826020860161385d565b91505092915050565b60006020828403121561390a5761390961344e565b5b600082013567ffffffffffffffff81111561392857613927613453565b5b613934848285016138c6565b91505092915050565b600081519050919050565b600082825260208201905092915050565b6000819050602082019050919050565b613972816135c5565b82525050565b600082825260208201905092915050565b600061399482613513565b61399e8185613978565b93506139ae81856020860161352f565b6139b781613559565b840191505092915050565b600060e0830160008301516139da6000860182613969565b50602083015184820360208601526139f28282613989565b9150506040830151613a076040860182613969565b5060608301518482036060860152613a1f8282613989565b91505060808301518482036080860152613a398282613989565b91505060a083015184820360a0860152613a538282613989565b91505060c083015184820360c0860152613a6d8282613989565b9150508091505092915050565b6000613a8683836139c2565b905092915050565b6000602082019050919050565b6000613aa68261393d565b613ab08185613948565b935083602082028501613ac285613959565b8060005b85811015613afe5784840389528151613adf8582613a7a565b9450613aea83613a8e565b925060208a01995050600181019050613ac6565b50829750879550505050505092915050565b60006020820190508181036000830152613b2a8184613a9b565b905092915050565b600060208284031215613b4857613b4761344e565b5b6000613b568482850161369b565b91505092915050565b6000602082019050613b7460008301846136f0565b92915050565b613b8381613648565b82525050565b600081519050919050565b600082825260208201905092915050565b6000819050602082019050919050565b6000613bc18383613969565b60208301905092915050565b6000602082019050919050565b6000613be582613b89565b613bef8185613b94565b9350613bfa83613ba5565b8060005b83811015613c2b578151613c128882613bb5565b9750613c1d83613bcd565b925050600181019050613bfe565b5085935050505092915050565b600060c083016000830151613c506000860182613969565b506020830151613c636020860182613b7a565b5060408301518482036040860152613c7b8282613bda565b9150506060830151613c906060860182613969565b506080830151613ca36080860182613969565b5060a083015184820360a0860152613cbb8282613989565b9150508091505092915050565b60006020820190508181036000830152613ce28184613c38565b905092915050565b600080fd5b600067ffffffffffffffff821115613d0a57613d096137b1565b5b613d1382613559565b9050602081019050919050565b82818337600083830152505050565b6000613d42613d3d84613cef565b613811565b905082815260208101848484011115613d5e57613d5d613cea565b5b613d69848285613d20565b509392505050565b600082601f830112613d8657613d856137ac565b5b8135613d96848260208601613d2f565b91505092915050565b600080600060608486031215613db857613db761344e565b5b6000613dc68682870161369b565b935050602084013567ffffffffffffffff811115613de757613de6613453565b5b613df3868287016138c6565b925050604084013567ffffffffffffffff811115613e1457613e13613453565b5b613e2086828701613d71565b9150509250925092565b600082825260208201905092915050565b6000613e4682613b89565b613e508185613e2a565b9350613e5b83613ba5565b8060005b83811015613e8c578151613e738882613bb5565b9750613e7e83613bcd565b925050600181019050613e5f565b5085935050505092915050565b60006020820190508181036000830152613eb38184613e3b565b905092915050565b613ec4816134dd565b8114613ecf57600080fd5b50565b600081359050613ee181613ebb565b92915050565b60008060408385031215613efe57613efd61344e565b5b6000613f0c8582860161369b565b9250506020613f1d85828601613ed2565b9150509250929050565b600067ffffffffffffffff821115613f4257613f416137b1565b5b613f4b82613559565b9050602081019050919050565b6000613f6b613f6684613f27565b613811565b905082815260208101848484011115613f8757613f86613cea565b5b613f92848285613d20565b509392505050565b600082601f830112613faf57613fae6137ac565b5b8135613fbf848260208601613f58565b91505092915050565b60008060008060808587031215613fe257613fe161344e565b5b6000613ff08782880161369b565b94505060206140018782880161369b565b9350506040614012878288016135e6565b925050606085013567ffffffffffffffff81111561403357614032613453565b5b61403f87828801613f9a565b91505092959194509250565b600060e082019050614060600083018a6136f0565b8181036020830152614072818961356a565b905061408160408301886136f0565b8181036060830152614093818761356a565b905081810360808301526140a7818661356a565b905081810360a08301526140bb818561356a565b905081810360c08301526140cf818461356a565b905098975050505050505050565b60008060008060008060c087890312156140fa576140f961344e565b5b600087013567ffffffffffffffff81111561411857614117613453565b5b61412489828a01613d71565b965050602061413589828a016135e6565b955050604087013567ffffffffffffffff81111561415657614155613453565b5b61416289828a01613d71565b945050606087013567ffffffffffffffff81111561418357614182613453565b5b61418f89828a01613d71565b935050608087013567ffffffffffffffff8111156141b0576141af613453565b5b6141bc89828a01613d71565b92505060a087013567ffffffffffffffff8111156141dd576141dc613453565b5b6141e989828a01613d71565b9150509295509295509295565b6000806040838503121561420d5761420c61344e565b5b600061421b8582860161369b565b925050602061422c8582860161369b565b9150509250929050565b6000806040838503121561424d5761424c61344e565b5b600061425b858286016135e6565b925050602061426c8582860161369b565b9150509250929050565b7f4e487b7100000000000000000000000000000000000000000000000000000000600052602260045260246000fd5b600060028204905060018216806142bd57607f821691505b6020821081036142d0576142cf614276565b5b50919050565b60006060820190506142eb600083018661365a565b6142f860208301856136f0565b614305604083018461365a565b949350505050565b7f4e487b7100000000000000000000000000000000000000000000000000000000600052603260045260246000fd5b7f5472616e73616374696f6e2073656e64657220646f6573206e6f74206f776e2060008201527f7468657365206974656d73000000000000000000000000000000000000000000602082015250565b6000614398602b8361351e565b91506143a38261433c565b604082019050919050565b600060208201905081810360008301526143c78161438b565b9050919050565b7f4e487b7100000000000000000000000000000000000000000000000000000000600052601160045260246000fd5b6000614408826135c5565b9150614413836135c5565b925082820190508082111561442b5761442a6143ce565b5b92915050565b600061443c826135c5565b9150614447836135c5565b9250828202614455816135c5565b9150828204841483151761446c5761446b6143ce565b5b5092915050565b7f4e487b7100000000000000000000000000000000000000000000000000000000600052601260045260246000fd5b60006144ad826135c5565b91506144b8836135c5565b9250826144c8576144c7614473565b5b828204905092915050565b60006144de826135c5565b91506144e9836135c5565b9250828203905081811115614501576145006143ce565b5b92915050565b7f496e73756666696369656e742066756e647320746f20636f6d706c657465207460008201527f6865207075726368617365000000000000000000000000000000000000000000602082015250565b6000614563602b8361351e565b915061456e82614507565b604082019050919050565b6000602082019050818103600083015261459281614556565b9050919050565b60006145a4826135c5565b91507fffffffffffffffffffffffffffffffffffffffffffffffffffffffffffffffff82036145d6576145d56143ce565b5b600182019050919050565b7f4e6f2066756e647320746f207769746864726177000000000000000000000000600082015250565b600061461760148361351e565b9150614622826145e1565b602082019050919050565b600060208201905081810360008301526146468161460a565b9050919050565b7f4e6f206974656d732070726f7669646564000000000000000000000000000000600082015250565b600061468360118361351e565b915061468e8261464d565b602082019050919050565b600060208201905081810360008301526146b281614676565b9050919050565b7f496e76616c696420726563697069656e74206164647265737300000000000000600082015250565b60006146ef60198361351e565b91506146fa826146b9565b602082019050919050565b6000602082019050818103600083015261471e816146e2565b9050919050565b7f526563697069656e7420646f6573206e6f74206f776e20616c6c206974656d73600082015250565b600061475b60208361351e565b915061476682614725565b602082019050919050565b6000602082019050818103600083015261478a8161474e565b9050919050565b7f4e6f2070656e64696e67207061796d656e7420666f756e6420666f722074686560008201527f20726563697069656e7400000000000000000000000000000000000000000000602082015250565b60006147ed602a8361351e565b91506147f882614791565b604082019050919050565b6000602082019050818103600083015261481c816147e0565b9050919050565b60008190508160005260206000209050919050565b60006020601f8301049050919050565b600082821b905092915050565b6000600883026148857fffffffffffffffffffffffffffffffffffffffffffffffffffffffffffffffff82614848565b61488f8683614848565b95508019841693508086168417925050509392505050565b6000819050919050565b60006148cc6148c76148c2846135c5565b6148a7565b6135c5565b9050919050565b6000819050919050565b6148e6836148b1565b6148fa6148f2826148d3565b848454614855565b825550505050565b600090565b61490f614902565b61491a8184846148dd565b505050565b5b8181101561493e57614933600082614907565b600181019050614920565b5050565b601f8211156149835761495481614823565b61495d84614838565b8101602085101561496c578190505b61498061497885614838565b83018261491f565b50505b505050565b600082821c905092915050565b60006149a660001984600802614988565b1980831691505092915050565b60006149bf8383614995565b9150826002028217905092915050565b6149d882613513565b67ffffffffffffffff8111156149f1576149f06137b1565b5b6149fb82546142a5565b614a06828285614942565b600060209050601f831160018114614a395760008415614a27578287015190505b614a3185826149b3565b865550614a99565b601f198416614a4786614823565b60005b82811015614a6f57848901518255600182019150602085019450602081019050614a4a565b86831015614a8c5784890151614a88601f891682614995565b8355505b6001600288020188555050505b505050505050565b600081905092915050565b6000614ab782613513565b614ac18185614aa1565b9350614ad181856020860161352f565b80840191505092915050565b6000614ae98285614aac565b9150614af58284614aac565b91508190509392505050565b7f4974656d20646f6573206e6f7420657869737400000000000000000000000000600082015250565b6000614b3760138361351e565b9150614b4282614b01565b602082019050919050565b60006020820190508181036000830152614b6681614b2a565b9050919050565b600081519050919050565b600082825260208201905092915050565b6000614b9482614b6d565b614b9e8185614b78565b9350614bae81856020860161352f565b614bb781613559565b840191505092915050565b6000608082019050614bd7600083018761365a565b614be4602083018661365a565b614bf160408301856136f0565b8181036060830152614c038184614b89565b905095945050505050565b600081519050614c1d81613484565b92915050565b600060208284031215614c3957614c3861344e565b5b6000614c4784828501614c0e565b91505092915050565b6000604082019050614c65600083018561365a565b614c7260208301846136f0565b939250505056fea2646970667358221220af5f00f7f99d7edff72092078fc8dd9b49b08ce2b3b8e5ba23c8470352d2d81764736f6c63430008180033",
  "devdoc": {
    "errors": {
      "ERC721IncorrectOwner(address,uint256,address)": [
        {
          "details": "Indicates an error related to the ownership over a particular token. Used in transfers.",
          "params": {
            "owner": "Address of the current owner of a token.",
            "sender": "Address whose tokens are being transferred.",
            "tokenId": "Identifier number of a token."
          }
        }
      ],
      "ERC721InsufficientApproval(address,uint256)": [
        {
          "details": "Indicates a failure with the `operator`s approval. Used in transfers.",
          "params": {
            "operator": "Address that may be allowed to operate on tokens without being their owner.",
            "tokenId": "Identifier number of a token."
          }
        }
      ],
      "ERC721InvalidApprover(address)": [
        {
          "details": "Indicates a failure with the `approver` of a token to be approved. Used in approvals.",
          "params": {
            "approver": "Address initiating an approval operation."
          }
        }
      ],
      "ERC721InvalidOperator(address)": [
        {
          "details": "Indicates a failure with the `operator` to be approved. Used in approvals.",
          "params": {
            "operator": "Address that may be allowed to operate on tokens without being their owner."
          }
        }
      ],
      "ERC721InvalidOwner(address)": [
        {
          "details": "Indicates that an address can't be an owner. For example, `address(0)` is a forbidden owner in EIP-20. Used in balance queries.",
          "params": {
            "owner": "Address of the current owner of a token."
          }
        }
      ],
      "ERC721InvalidReceiver(address)": [
        {
          "details": "Indicates a failure with the token `receiver`. Used in transfers.",
          "params": {
            "receiver": "Address to which tokens are being transferred."
          }
        }
      ],
      "ERC721InvalidSender(address)": [
        {
          "details": "Indicates a failure with the token `sender`. Used in transfers.",
          "params": {
            "sender": "Address whose tokens are being transferred."
          }
        }
      ],
      "ERC721NonexistentToken(uint256)": [
        {
          "details": "Indicates a `tokenId` whose `owner` is the zero address.",
          "params": {
            "tokenId": "Identifier number of a token."
          }
        }
      ],
      "OwnableInvalidOwner(address)": [
        {
          "details": "The owner is not a valid owner account. (eg. `address(0)`)"
        }
      ],
      "OwnableUnauthorizedAccount(address)": [
        {
          "details": "The caller account is not authorized to perform an operation."
        }
      ]
    },
    "events": {
      "Approval(address,address,uint256)": {
        "details": "Emitted when `owner` enables `approved` to manage the `tokenId` token."
      },
      "ApprovalForAll(address,address,bool)": {
        "details": "Emitted when `owner` enables or disables (`approved`) `operator` to manage all of its assets."
      },
      "BatchMetadataUpdate(uint256,uint256)": {
        "details": "This event emits when the metadata of a range of tokens is changed. So that the third-party platforms such as NFT market could timely update the images and related attributes of the NFTs."
      },
      "MetadataUpdate(uint256)": {
        "details": "This event emits when the metadata of a token is changed. So that the third-party platforms such as NFT market could timely update the images and related attributes of the NFT."
      },
      "Transfer(address,address,uint256)": {
        "details": "Emitted when `tokenId` token is transferred from `from` to `to`."
      }
    },
    "kind": "dev",
    "methods": {
      "approve(address,uint256)": {
        "details": "See {IERC721-approve}."
      },
      "balanceOf(address)": {
        "details": "See {IERC721-balanceOf}."
      },
      "getApproved(uint256)": {
        "details": "See {IERC721-getApproved}."
      },
      "isApprovedForAll(address,address)": {
        "details": "See {IERC721-isApprovedForAll}."
      },
      "name()": {
        "details": "See {IERC721Metadata-name}."
      },
      "owner()": {
        "details": "Returns the address of the current owner."
      },
      "ownerOf(uint256)": {
        "details": "See {IERC721-ownerOf}."
      },
      "renounceOwnership()": {
        "details": "Leaves the contract without owner. It will not be possible to call `onlyOwner` functions. Can only be called by the current owner. NOTE: Renouncing ownership will leave the contract without an owner, thereby disabling any functionality that is only available to the owner."
      },
      "safeTransferFrom(address,address,uint256)": {
        "details": "See {IERC721-safeTransferFrom}."
      },
      "safeTransferFrom(address,address,uint256,bytes)": {
        "details": "See {IERC721-safeTransferFrom}."
      },
      "setApprovalForAll(address,bool)": {
        "details": "See {IERC721-setApprovalForAll}."
      },
      "supportsInterface(bytes4)": {
        "details": "See {IERC165-supportsInterface}"
      },
      "symbol()": {
        "details": "See {IERC721Metadata-symbol}."
      },
      "tokenURI(uint256)": {
        "details": "See {IERC721Metadata-tokenURI}."
      },
      "transferFrom(address,address,uint256)": {
        "details": "See {IERC721-transferFrom}."
      },
      "transferOwnership(address)": {
        "details": "Transfers ownership of the contract to a new account (`newOwner`). Can only be called by the current owner."
      }
    },
    "version": 1
  },
  "userdoc": {
    "kind": "user",
    "methods": {},
    "version": 1
  },
  "storageLayout": {
    "storage": [
      {
        "astId": 349,
        "contract": "contracts/HealthItemPurchase.sol:HealthItemPurchase",
        "label": "_name",
        "offset": 0,
        "slot": "0",
        "type": "t_string_storage"
      },
      {
        "astId": 351,
        "contract": "contracts/HealthItemPurchase.sol:HealthItemPurchase",
        "label": "_symbol",
        "offset": 0,
        "slot": "1",
        "type": "t_string_storage"
      },
      {
        "astId": 355,
        "contract": "contracts/HealthItemPurchase.sol:HealthItemPurchase",
        "label": "_owners",
        "offset": 0,
        "slot": "2",
        "type": "t_mapping(t_uint256,t_address)"
      },
      {
        "astId": 359,
        "contract": "contracts/HealthItemPurchase.sol:HealthItemPurchase",
        "label": "_balances",
        "offset": 0,
        "slot": "3",
        "type": "t_mapping(t_address,t_uint256)"
      },
      {
        "astId": 363,
        "contract": "contracts/HealthItemPurchase.sol:HealthItemPurchase",
        "label": "_tokenApprovals",
        "offset": 0,
        "slot": "4",
        "type": "t_mapping(t_uint256,t_address)"
      },
      {
        "astId": 369,
        "contract": "contracts/HealthItemPurchase.sol:HealthItemPurchase",
        "label": "_operatorApprovals",
        "offset": 0,
        "slot": "5",
        "type": "t_mapping(t_address,t_mapping(t_address,t_bool))"
      },
      {
        "astId": 1488,
        "contract": "contracts/HealthItemPurchase.sol:HealthItemPurchase",
        "label": "_tokenURIs",
        "offset": 0,
        "slot": "6",
        "type": "t_mapping(t_uint256,t_string_storage)"
      },
      {
        "astId": 8,
        "contract": "contracts/HealthItemPurchase.sol:HealthItemPurchase",
        "label": "_owner",
        "offset": 0,
        "slot": "7",
        "type": "t_address"
      },
      {
        "astId": 3133,
        "contract": "contracts/HealthItemPurchase.sol:HealthItemPurchase",
        "label": "receiptCounter",
        "offset": 0,
        "slot": "8",
        "type": "t_uint256"
      },
      {
        "astId": 3135,
        "contract": "contracts/HealthItemPurchase.sol:HealthItemPurchase",
        "label": "itemCounter",
        "offset": 0,
        "slot": "9",
        "type": "t_uint256"
      },
      {
        "astId": 3140,
        "contract": "contracts/HealthItemPurchase.sol:HealthItemPurchase",
        "label": "items",
        "offset": 0,
        "slot": "10",
        "type": "t_mapping(t_uint256,t_struct(Item)3117_storage)"
      },
      {
        "astId": 3145,
        "contract": "contracts/HealthItemPurchase.sol:HealthItemPurchase",
        "label": "receipts",
        "offset": 0,
        "slot": "11",
        "type": "t_mapping(t_uint256,t_struct(Receipt)3131_storage)"
      },
      {
        "astId": 3150,
        "contract": "contracts/HealthItemPurchase.sol:HealthItemPurchase",
        "label": "userReceipts",
        "offset": 0,
        "slot": "12",
        "type": "t_mapping(t_address,t_array(t_uint256)dyn_storage)"
      },
      {
        "astId": 3154,
        "contract": "contracts/HealthItemPurchase.sol:HealthItemPurchase",
        "label": "itemToOwner",
        "offset": 0,
        "slot": "13",
        "type": "t_mapping(t_uint256,t_address)"
      },
      {
        "astId": 3158,
        "contract": "contracts/HealthItemPurchase.sol:HealthItemPurchase",
        "label": "pendingPayments",
        "offset": 0,
        "slot": "14",
        "type": "t_mapping(t_address,t_uint256)"
      },
      {
        "astId": 3162,
        "contract": "contracts/HealthItemPurchase.sol:HealthItemPurchase",
        "label": "customerTokens",
        "offset": 0,
        "slot": "15",
        "type": "t_mapping(t_address,t_uint256)"
      }
    ],
    "types": {
      "t_address": {
        "encoding": "inplace",
        "label": "address",
        "numberOfBytes": "20"
      },
      "t_array(t_uint256)dyn_storage": {
        "base": "t_uint256",
        "encoding": "dynamic_array",
        "label": "uint256[]",
        "numberOfBytes": "32"
      },
      "t_bool": {
        "encoding": "inplace",
        "label": "bool",
        "numberOfBytes": "1"
      },
      "t_mapping(t_address,t_array(t_uint256)dyn_storage)": {
        "encoding": "mapping",
        "key": "t_address",
        "label": "mapping(address => uint256[])",
        "numberOfBytes": "32",
        "value": "t_array(t_uint256)dyn_storage"
      },
      "t_mapping(t_address,t_bool)": {
        "encoding": "mapping",
        "key": "t_address",
        "label": "mapping(address => bool)",
        "numberOfBytes": "32",
        "value": "t_bool"
      },
      "t_mapping(t_address,t_mapping(t_address,t_bool))": {
        "encoding": "mapping",
        "key": "t_address",
        "label": "mapping(address => mapping(address => bool))",
        "numberOfBytes": "32",
        "value": "t_mapping(t_address,t_bool)"
      },
      "t_mapping(t_address,t_uint256)": {
        "encoding": "mapping",
        "key": "t_address",
        "label": "mapping(address => uint256)",
        "numberOfBytes": "32",
        "value": "t_uint256"
      },
      "t_mapping(t_uint256,t_address)": {
        "encoding": "mapping",
        "key": "t_uint256",
        "label": "mapping(uint256 => address)",
        "numberOfBytes": "32",
        "value": "t_address"
      },
      "t_mapping(t_uint256,t_string_storage)": {
        "encoding": "mapping",
        "key": "t_uint256",
        "label": "mapping(uint256 => string)",
        "numberOfBytes": "32",
        "value": "t_string_storage"
      },
      "t_mapping(t_uint256,t_struct(Item)3117_storage)": {
        "encoding": "mapping",
        "key": "t_uint256",
        "label": "mapping(uint256 => struct HealthItemPurchase.Item)",
        "numberOfBytes": "32",
        "value": "t_struct(Item)3117_storage"
      },
      "t_mapping(t_uint256,t_struct(Receipt)3131_storage)": {
        "encoding": "mapping",
        "key": "t_uint256",
        "label": "mapping(uint256 => struct HealthItemPurchase.Receipt)",
        "numberOfBytes": "32",
        "value": "t_struct(Receipt)3131_storage"
      },
      "t_string_storage": {
        "encoding": "bytes",
        "label": "string",
        "numberOfBytes": "32"
      },
      "t_struct(Item)3117_storage": {
        "encoding": "inplace",
        "label": "struct HealthItemPurchase.Item",
        "members": [
          {
            "astId": 3104,
            "contract": "contracts/HealthItemPurchase.sol:HealthItemPurchase",
            "label": "id",
            "offset": 0,
            "slot": "0",
            "type": "t_uint256"
          },
          {
            "astId": 3106,
            "contract": "contracts/HealthItemPurchase.sol:HealthItemPurchase",
            "label": "name",
            "offset": 0,
            "slot": "1",
            "type": "t_string_storage"
          },
          {
            "astId": 3108,
            "contract": "contracts/HealthItemPurchase.sol:HealthItemPurchase",
            "label": "price",
            "offset": 0,
            "slot": "2",
            "type": "t_uint256"
          },
          {
            "astId": 3110,
            "contract": "contracts/HealthItemPurchase.sol:HealthItemPurchase",
            "label": "atcCode",
            "offset": 0,
            "slot": "3",
            "type": "t_string_storage"
          },
          {
            "astId": 3112,
            "contract": "contracts/HealthItemPurchase.sol:HealthItemPurchase",
            "label": "imageUri",
            "offset": 0,
            "slot": "4",
            "type": "t_string_storage"
          },
          {
            "astId": 3114,
            "contract": "contracts/HealthItemPurchase.sol:HealthItemPurchase",
            "label": "description",
            "offset": 0,
            "slot": "5",
            "type": "t_string_storage"
          },
          {
            "astId": 3116,
            "contract": "contracts/HealthItemPurchase.sol:HealthItemPurchase",
            "label": "tokenUri",
            "offset": 0,
            "slot": "6",
            "type": "t_string_storage"
          }
        ],
        "numberOfBytes": "224"
      },
      "t_struct(Receipt)3131_storage": {
        "encoding": "inplace",
        "label": "struct HealthItemPurchase.Receipt",
        "members": [
          {
            "astId": 3119,
            "contract": "contracts/HealthItemPurchase.sol:HealthItemPurchase",
            "label": "receiptId",
            "offset": 0,
            "slot": "0",
            "type": "t_uint256"
          },
          {
            "astId": 3121,
            "contract": "contracts/HealthItemPurchase.sol:HealthItemPurchase",
            "label": "buyer",
            "offset": 0,
            "slot": "1",
            "type": "t_address"
          },
          {
            "astId": 3124,
            "contract": "contracts/HealthItemPurchase.sol:HealthItemPurchase",
            "label": "itemIds",
            "offset": 0,
            "slot": "2",
            "type": "t_array(t_uint256)dyn_storage"
          },
          {
            "astId": 3126,
            "contract": "contracts/HealthItemPurchase.sol:HealthItemPurchase",
            "label": "totalPrice",
            "offset": 0,
            "slot": "3",
            "type": "t_uint256"
          },
          {
            "astId": 3128,
            "contract": "contracts/HealthItemPurchase.sol:HealthItemPurchase",
            "label": "purchaseDate",
            "offset": 0,
            "slot": "4",
            "type": "t_uint256"
          },
          {
            "astId": 3130,
            "contract": "contracts/HealthItemPurchase.sol:HealthItemPurchase",
            "label": "tokenUri",
            "offset": 0,
            "slot": "5",
            "type": "t_string_storage"
          }
        ],
        "numberOfBytes": "192"
      },
      "t_uint256": {
        "encoding": "inplace",
        "label": "uint256",
        "numberOfBytes": "32"
      }
    }
  }
}