{
  "address": "0xE6E340D132b5f46d1e472DebcD681B2aBc16e57E",
  "abi": [
    {
      "inputs": [
        {
          "internalType": "address",
          "name": "vrfCoordinatorV2",
          "type": "address"
        },
        {
          "internalType": "uint64",
          "name": "subscriptionId",
          "type": "uint64"
        },
        {
          "internalType": "bytes32",
          "name": "gasLane",
          "type": "bytes32"
        },
        {
          "internalType": "uint32",
          "name": "callbackGasLimit",
          "type": "uint32"
        },
        {
          "internalType": "string[3]",
          "name": "dogTokenUris",
          "type": "string[3]"
        },
        {
          "internalType": "uint256",
          "name": "mintFee",
          "type": "uint256"
        }
      ],
      "stateMutability": "nonpayable",
      "type": "constructor"
    },
    {
      "inputs": [
        {
          "internalType": "address",
          "name": "sender",
          "type": "address"
        },
        {
          "internalType": "uint256",
          "name": "tokenId",
          "type": "uint256"
        },
        {
          "internalType": "address",
          "name": "owner",
          "type": "address"
        }
      ],
      "name": "ERC721IncorrectOwner",
      "type": "error"
    },
    {
      "inputs": [
        {
          "internalType": "address",
          "name": "operator",
          "type": "address"
        },
        {
          "internalType": "uint256",
          "name": "tokenId",
          "type": "uint256"
        }
      ],
      "name": "ERC721InsufficientApproval",
      "type": "error"
    },
    {
      "inputs": [
        {
          "internalType": "address",
          "name": "approver",
          "type": "address"
        }
      ],
      "name": "ERC721InvalidApprover",
      "type": "error"
    },
    {
      "inputs": [
        {
          "internalType": "address",
          "name": "operator",
          "type": "address"
        }
      ],
      "name": "ERC721InvalidOperator",
      "type": "error"
    },
    {
      "inputs": [
        {
          "internalType": "address",
          "name": "owner",
          "type": "address"
        }
      ],
      "name": "ERC721InvalidOwner",
      "type": "error"
    },
    {
      "inputs": [
        {
          "internalType": "address",
          "name": "receiver",
          "type": "address"
        }
      ],
      "name": "ERC721InvalidReceiver",
      "type": "error"
    },
    {
      "inputs": [
        {
          "internalType": "address",
          "name": "sender",
          "type": "address"
        }
      ],
      "name": "ERC721InvalidSender",
      "type": "error"
    },
    {
      "inputs": [
        {
          "internalType": "uint256",
          "name": "tokenId",
          "type": "uint256"
        }
      ],
      "name": "ERC721NonexistentToken",
      "type": "error"
    },
    {
      "inputs": [
        {
          "internalType": "address",
          "name": "have",
          "type": "address"
        },
        {
          "internalType": "address",
          "name": "want",
          "type": "address"
        }
      ],
      "name": "OnlyCoordinatorCanFulfill",
      "type": "error"
    },
    {
      "inputs": [
        {
          "internalType": "address",
          "name": "owner",
          "type": "address"
        }
      ],
      "name": "OwnableInvalidOwner",
      "type": "error"
    },
    {
      "inputs": [
        {
          "internalType": "address",
          "name": "account",
          "type": "address"
        }
      ],
      "name": "OwnableUnauthorizedAccount",
      "type": "error"
    },
    {
      "inputs": [],
      "name": "RandomIpfsNft__NeedMoreETHSent",
      "type": "error"
    },
    {
      "inputs": [],
      "name": "RandomIpfsNft__RangeOutOfBounds",
      "type": "error"
    },
    {
      "inputs": [],
      "name": "RandomIpfsNft__TransferFailed",
      "type": "error"
    },
    {
      "anonymous": false,
      "inputs": [
        {
          "indexed": true,
          "internalType": "address",
          "name": "owner",
          "type": "address"
        },
        {
          "indexed": true,
          "internalType": "address",
          "name": "approved",
          "type": "address"
        },
        {
          "indexed": true,
          "internalType": "uint256",
          "name": "tokenId",
          "type": "uint256"
        }
      ],
      "name": "Approval",
      "type": "event"
    },
    {
      "anonymous": false,
      "inputs": [
        {
          "indexed": true,
          "internalType": "address",
          "name": "owner",
          "type": "address"
        },
        {
          "indexed": true,
          "internalType": "address",
          "name": "operator",
          "type": "address"
        },
        {
          "indexed": false,
          "internalType": "bool",
          "name": "approved",
          "type": "bool"
        }
      ],
      "name": "ApprovalForAll",
      "type": "event"
    },
    {
      "anonymous": false,
      "inputs": [
        {
          "indexed": false,
          "internalType": "uint256",
          "name": "_fromTokenId",
          "type": "uint256"
        },
        {
          "indexed": false,
          "internalType": "uint256",
          "name": "_toTokenId",
          "type": "uint256"
        }
      ],
      "name": "BatchMetadataUpdate",
      "type": "event"
    },
    {
      "anonymous": false,
      "inputs": [
        {
          "indexed": false,
          "internalType": "uint256",
          "name": "_tokenId",
          "type": "uint256"
        }
      ],
      "name": "MetadataUpdate",
      "type": "event"
    },
    {
      "anonymous": false,
      "inputs": [
        {
          "indexed": false,
          "internalType": "enum RandomIpfsNft.Breed",
          "name": "dogBreed",
          "type": "uint8"
        },
        {
          "indexed": false,
          "internalType": "address",
          "name": "minter",
          "type": "address"
        }
      ],
      "name": "NftMinted",
      "type": "event"
    },
    {
      "anonymous": false,
      "inputs": [
        {
          "indexed": true,
          "internalType": "uint256",
          "name": "requestId",
          "type": "uint256"
        },
        {
          "indexed": false,
          "internalType": "address",
          "name": "requester",
          "type": "address"
        }
      ],
      "name": "NftRequested",
      "type": "event"
    },
    {
      "anonymous": false,
      "inputs": [
        {
          "indexed": true,
          "internalType": "address",
          "name": "previousOwner",
          "type": "address"
        },
        {
          "indexed": true,
          "internalType": "address",
          "name": "newOwner",
          "type": "address"
        }
      ],
      "name": "OwnershipTransferred",
      "type": "event"
    },
    {
      "anonymous": false,
      "inputs": [
        {
          "indexed": true,
          "internalType": "address",
          "name": "from",
          "type": "address"
        },
        {
          "indexed": true,
          "internalType": "address",
          "name": "to",
          "type": "address"
        },
        {
          "indexed": true,
          "internalType": "uint256",
          "name": "tokenId",
          "type": "uint256"
        }
      ],
      "name": "Transfer",
      "type": "event"
    },
    {
      "inputs": [
        {
          "internalType": "address",
          "name": "to",
          "type": "address"
        },
        {
          "internalType": "uint256",
          "name": "tokenId",
          "type": "uint256"
        }
      ],
      "name": "approve",
      "outputs": [],
      "stateMutability": "nonpayable",
      "type": "function"
    },
    {
      "inputs": [
        {
          "internalType": "address",
          "name": "owner",
          "type": "address"
        }
      ],
      "name": "balanceOf",
      "outputs": [
        {
          "internalType": "uint256",
          "name": "",
          "type": "uint256"
        }
      ],
      "stateMutability": "view",
      "type": "function"
    },
    {
      "inputs": [
        {
          "internalType": "uint256",
          "name": "tokenId",
          "type": "uint256"
        }
      ],
      "name": "getApproved",
      "outputs": [
        {
          "internalType": "address",
          "name": "",
          "type": "address"
        }
      ],
      "stateMutability": "view",
      "type": "function"
    },
    {
      "inputs": [
        {
          "internalType": "uint256",
          "name": "moddedRng",
          "type": "uint256"
        }
      ],
      "name": "getBreedFromModdedRng",
      "outputs": [
        {
          "internalType": "enum RandomIpfsNft.Breed",
          "name": "",
          "type": "uint8"
        }
      ],
      "stateMutability": "pure",
      "type": "function"
    },
    {
      "inputs": [],
      "name": "getChanceArray",
      "outputs": [
        {
          "internalType": "uint256[3]",
          "name": "",
          "type": "uint256[3]"
        }
      ],
      "stateMutability": "pure",
      "type": "function"
    },
    {
      "inputs": [
        {
          "internalType": "uint256",
          "name": "index",
          "type": "uint256"
        }
      ],
      "name": "getDogTokenUris",
      "outputs": [
        {
          "internalType": "string",
          "name": "",
          "type": "string"
        }
      ],
      "stateMutability": "view",
      "type": "function"
    },
    {
      "inputs": [],
      "name": "getMintFee",
      "outputs": [
        {
          "internalType": "uint256",
          "name": "",
          "type": "uint256"
        }
      ],
      "stateMutability": "view",
      "type": "function"
    },
    {
      "inputs": [],
      "name": "getTokenCounter",
      "outputs": [
        {
          "internalType": "uint256",
          "name": "",
          "type": "uint256"
        }
      ],
      "stateMutability": "view",
      "type": "function"
    },
    {
      "inputs": [
        {
          "internalType": "address",
          "name": "owner",
          "type": "address"
        },
        {
          "internalType": "address",
          "name": "operator",
          "type": "address"
        }
      ],
      "name": "isApprovedForAll",
      "outputs": [
        {
          "internalType": "bool",
          "name": "",
          "type": "bool"
        }
      ],
      "stateMutability": "view",
      "type": "function"
    },
    {
      "inputs": [],
      "name": "name",
      "outputs": [
        {
          "internalType": "string",
          "name": "",
          "type": "string"
        }
      ],
      "stateMutability": "view",
      "type": "function"
    },
    {
      "inputs": [],
      "name": "owner",
      "outputs": [
        {
          "internalType": "address",
          "name": "",
          "type": "address"
        }
      ],
      "stateMutability": "view",
      "type": "function"
    },
    {
      "inputs": [
        {
          "internalType": "uint256",
          "name": "tokenId",
          "type": "uint256"
        }
      ],
      "name": "ownerOf",
      "outputs": [
        {
          "internalType": "address",
          "name": "",
          "type": "address"
        }
      ],
      "stateMutability": "view",
      "type": "function"
    },
    {
      "inputs": [
        {
          "internalType": "uint256",
          "name": "requestId",
          "type": "uint256"
        },
        {
          "internalType": "uint256[]",
          "name": "randomWords",
          "type": "uint256[]"
        }
      ],
      "name": "rawFulfillRandomWords",
      "outputs": [],
      "stateMutability": "nonpayable",
      "type": "function"
    },
    {
      "inputs": [],
      "name": "renounceOwnership",
      "outputs": [],
      "stateMutability": "nonpayable",
      "type": "function"
    },
    {
      "inputs": [],
      "name": "requestNft",
      "outputs": [
        {
          "internalType": "uint256",
          "name": "requestId",
          "type": "uint256"
        }
      ],
      "stateMutability": "payable",
      "type": "function"
    },
    {
      "inputs": [
        {
          "internalType": "uint256",
          "name": "",
          "type": "uint256"
        }
      ],
      "name": "s_requestIdToSender",
      "outputs": [
        {
          "internalType": "address",
          "name": "",
          "type": "address"
        }
      ],
      "stateMutability": "view",
      "type": "function"
    },
    {
      "inputs": [],
      "name": "s_tokenCounter",
      "outputs": [
        {
          "internalType": "uint256",
          "name": "",
          "type": "uint256"
        }
      ],
      "stateMutability": "view",
      "type": "function"
    },
    {
      "inputs": [
        {
          "internalType": "address",
          "name": "from",
          "type": "address"
        },
        {
          "internalType": "address",
          "name": "to",
          "type": "address"
        },
        {
          "internalType": "uint256",
          "name": "tokenId",
          "type": "uint256"
        }
      ],
      "name": "safeTransferFrom",
      "outputs": [],
      "stateMutability": "nonpayable",
      "type": "function"
    },
    {
      "inputs": [
        {
          "internalType": "address",
          "name": "from",
          "type": "address"
        },
        {
          "internalType": "address",
          "name": "to",
          "type": "address"
        },
        {
          "internalType": "uint256",
          "name": "tokenId",
          "type": "uint256"
        },
        {
          "internalType": "bytes",
          "name": "data",
          "type": "bytes"
        }
      ],
      "name": "safeTransferFrom",
      "outputs": [],
      "stateMutability": "nonpayable",
      "type": "function"
    },
    {
      "inputs": [
        {
          "internalType": "address",
          "name": "operator",
          "type": "address"
        },
        {
          "internalType": "bool",
          "name": "approved",
          "type": "bool"
        }
      ],
      "name": "setApprovalForAll",
      "outputs": [],
      "stateMutability": "nonpayable",
      "type": "function"
    },
    {
      "inputs": [
        {
          "internalType": "bytes4",
          "name": "interfaceId",
          "type": "bytes4"
        }
      ],
      "name": "supportsInterface",
      "outputs": [
        {
          "internalType": "bool",
          "name": "",
          "type": "bool"
        }
      ],
      "stateMutability": "view",
      "type": "function"
    },
    {
      "inputs": [],
      "name": "symbol",
      "outputs": [
        {
          "internalType": "string",
          "name": "",
          "type": "string"
        }
      ],
      "stateMutability": "view",
      "type": "function"
    },
    {
      "inputs": [
        {
          "internalType": "uint256",
          "name": "tokenId",
          "type": "uint256"
        }
      ],
      "name": "tokenURI",
      "outputs": [
        {
          "internalType": "string",
          "name": "",
          "type": "string"
        }
      ],
      "stateMutability": "view",
      "type": "function"
    },
    {
      "inputs": [
        {
          "internalType": "address",
          "name": "from",
          "type": "address"
        },
        {
          "internalType": "address",
          "name": "to",
          "type": "address"
        },
        {
          "internalType": "uint256",
          "name": "tokenId",
          "type": "uint256"
        }
      ],
      "name": "transferFrom",
      "outputs": [],
      "stateMutability": "nonpayable",
      "type": "function"
    },
    {
      "inputs": [
        {
          "internalType": "address",
          "name": "newOwner",
          "type": "address"
        }
      ],
      "name": "transferOwnership",
      "outputs": [],
      "stateMutability": "nonpayable",
      "type": "function"
    },
    {
      "inputs": [],
      "name": "withdraw",
      "outputs": [],
      "stateMutability": "nonpayable",
      "type": "function"
    }
  ],
  "transactionHash": "0x4503dc1d1e1bd8e0f12cdf79769e5d719aa7e76d344216287f9dba954c6ac210",
  "args": [
    "0x5FbDB2315678afecb367f032d93F642f64180aa3",
    "20",
    "0x474e34a077df58807dbe9c96d3c009b23b3c6d0cce433e59bbf5b34f823bc56c",
    "500000",
    [
      "ipfs://QmbDwArpYUrvr17oXGt2xm3uREDX6xjJa6XfoEHhxnYjfi",
      "ipfs://QmXpaezx8M2ikYcL27C89wStCKHUgiY9onBsNB9HQpRvHR",
      "ipfs://QmZvKSM82UAdMGiTVWHqkZJctmamS14TEVSbpRBq8kuH58"
    ],
    "1000000000000000"
  ],
  "numDeployments": 6,
  "solcInputHash": "3c58d0ec3fe931745b053c10c3a5143a",
  "bytecode": "0x6101406040523480156200001257600080fd5b5060405162003fdf38038062003fdf8339818101604052810190620000389190620007af565b856040518060400160405280600f81526020017f52616e646f6d2049504653204e665400000000000000000000000000000000008152506040518060400160405280600381526020017f52494e0000000000000000000000000000000000000000000000000000000000815250888073ffffffffffffffffffffffffffffffffffffffff1660808173ffffffffffffffffffffffffffffffffffffffff1681525050508160009081620000ec919062000aab565b508060019081620000fe919062000aab565b505050600073ffffffffffffffffffffffffffffffffffffffff168173ffffffffffffffffffffffffffffffffffffffff1603620001765760006040517f1e4fbdf70000000000000000000000000000000000000000000000000000000081526004016200016d919062000ba3565b60405180910390fd5b62000187816200021e60201b60201c565b508573ffffffffffffffffffffffffffffffffffffffff1660a08173ffffffffffffffffffffffffffffffffffffffff16815250508467ffffffffffffffff1660c08167ffffffffffffffff16815250508360e081815250508263ffffffff166101008163ffffffff168152505081600a90600362000208929190620002e4565b5080610120818152505050505050505062000bc0565b6000600760009054906101000a900473ffffffffffffffffffffffffffffffffffffffff16905081600760006101000a81548173ffffffffffffffffffffffffffffffffffffffff021916908373ffffffffffffffffffffffffffffffffffffffff1602179055508173ffffffffffffffffffffffffffffffffffffffff168173ffffffffffffffffffffffffffffffffffffffff167f8be0079c531659141344cd1fd0a4f28419497f9722a3daafe3b4186f6b6457e060405160405180910390a35050565b82805482825590600052602060002090810192821562000331579160200282015b82811115620003305782518290816200031f919062000aab565b509160200191906001019062000305565b5b50905062000340919062000344565b5090565b5b808211156200036857600081816200035e91906200036c565b5060010162000345565b5090565b5080546200037a90620008a4565b6000825580601f106200038e5750620003af565b601f016020900490600052602060002090810190620003ae9190620003b2565b5b50565b5b80821115620003cd576000816000905550600101620003b3565b5090565b6000604051905090565b600080fd5b600080fd5b600073ffffffffffffffffffffffffffffffffffffffff82169050919050565b60006200041282620003e5565b9050919050565b620004248162000405565b81146200043057600080fd5b50565b600081519050620004448162000419565b92915050565b600067ffffffffffffffff82169050919050565b62000469816200044a565b81146200047557600080fd5b50565b60008151905062000489816200045e565b92915050565b6000819050919050565b620004a4816200048f565b8114620004b057600080fd5b50565b600081519050620004c48162000499565b92915050565b600063ffffffff82169050919050565b620004e581620004ca565b8114620004f157600080fd5b50565b6000815190506200050581620004da565b92915050565b600080fd5b6000601f19601f8301169050919050565b7f4e487b7100000000000000000000000000000000000000000000000000000000600052604160045260246000fd5b6200055b8262000510565b810181811067ffffffffffffffff821117156200057d576200057c62000521565b5b80604052505050565b600062000592620003d1565b9050620005a0828262000550565b919050565b600067ffffffffffffffff821115620005c357620005c262000521565b5b602082029050919050565b600080fd5b600080fd5b600067ffffffffffffffff821115620005f657620005f562000521565b5b620006018262000510565b9050602081019050919050565b60005b838110156200062e57808201518184015260208101905062000611565b60008484015250505050565b6000620006516200064b84620005d8565b62000586565b90508281526020810184848401111562000670576200066f620005d3565b5b6200067d8482856200060e565b509392505050565b600082601f8301126200069d576200069c6200050b565b5b8151620006af8482602086016200063a565b91505092915050565b6000620006cf620006c984620005a5565b62000586565b90508060208402830185811115620006ec57620006eb620005ce565b5b835b818110156200073a57805167ffffffffffffffff8111156200071557620007146200050b565b5b80860162000724898262000685565b85526020850194505050602081019050620006ee565b5050509392505050565b600082601f8301126200075c576200075b6200050b565b5b60036200076b848285620006b8565b91505092915050565b6000819050919050565b620007898162000774565b81146200079557600080fd5b50565b600081519050620007a9816200077e565b92915050565b60008060008060008060c08789031215620007cf57620007ce620003db565b5b6000620007df89828a0162000433565b9650506020620007f289828a0162000478565b95505060406200080589828a01620004b3565b94505060606200081889828a01620004f4565b935050608087015167ffffffffffffffff8111156200083c576200083b620003e0565b5b6200084a89828a0162000744565b92505060a06200085d89828a0162000798565b9150509295509295509295565b600081519050919050565b7f4e487b7100000000000000000000000000000000000000000000000000000000600052602260045260246000fd5b60006002820490506001821680620008bd57607f821691505b602082108103620008d357620008d262000875565b5b50919050565b60008190508160005260206000209050919050565b60006020601f8301049050919050565b600082821b905092915050565b6000600883026200093d7fffffffffffffffffffffffffffffffffffffffffffffffffffffffffffffffff82620008fe565b620009498683620008fe565b95508019841693508086168417925050509392505050565b6000819050919050565b60006200098c62000986620009808462000774565b62000961565b62000774565b9050919050565b6000819050919050565b620009a8836200096b565b620009c0620009b78262000993565b8484546200090b565b825550505050565b600090565b620009d7620009c8565b620009e48184846200099d565b505050565b5b8181101562000a0c5762000a00600082620009cd565b600181019050620009ea565b5050565b601f82111562000a5b5762000a2581620008d9565b62000a3084620008ee565b8101602085101562000a40578190505b62000a5862000a4f85620008ee565b830182620009e9565b50505b505050565b600082821c905092915050565b600062000a806000198460080262000a60565b1980831691505092915050565b600062000a9b838362000a6d565b9150826002028217905092915050565b62000ab6826200086a565b67ffffffffffffffff81111562000ad25762000ad162000521565b5b62000ade8254620008a4565b62000aeb82828562000a10565b600060209050601f83116001811462000b23576000841562000b0e578287015190505b62000b1a858262000a8d565b86555062000b8a565b601f19841662000b3386620008d9565b60005b8281101562000b5d5784890151825560018201915060208501945060208101905062000b36565b8683101562000b7d578489015162000b79601f89168262000a6d565b8355505b6001600288020188555050505b505050505050565b62000b9d8162000405565b82525050565b600060208201905062000bba600083018462000b92565b92915050565b60805160a05160c05160e05161010051610120516133c162000c1e60003960008181610bcd0152610dd601526000610eb001526000610e6c01526000610e8d01526000610e3001526000818161077001526107c401526133c16000f3fe6080604052600436106101815760003560e01c806370a08231116100d1578063a36f573b1161008a578063b88d4fde11610064578063b88d4fde14610577578063c87b56dd146105a0578063e985e9c5146105dd578063f2fde38b1461061a57610181565b8063a36f573b146104df578063a51cccf31461051c578063aa1524911461055957610181565b806370a08231146103e1578063715018a61461041e5780637a5caab3146104355780638da5cb5b1461046057806395d89b411461048b578063a22cb465146104b657610181565b806323b872dd1161013e57806342842e0e1161011857806342842e0e146103255780635dacf5f41461034e5780636352211e146103795780636e02007d146103b657610181565b806323b872dd146102a85780633af25975146102d15780633ccfd60b1461030e57610181565b806301ffc9a71461018657806306fdde03146101c3578063081812fc146101ee578063095ea7b31461022b5780630b21a83b146102545780631fe543e31461027f575b600080fd5b34801561019257600080fd5b506101ad60048036038101906101a891906124a9565b610643565b6040516101ba91906124f1565b60405180910390f35b3480156101cf57600080fd5b506101d86106a4565b6040516101e5919061259c565b60405180910390f35b3480156101fa57600080fd5b50610215600480360381019061021091906125f4565b610736565b6040516102229190612662565b60405180910390f35b34801561023757600080fd5b50610252600480360381019061024d91906126a9565b610752565b005b34801561026057600080fd5b50610269610768565b60405161027691906126f8565b60405180910390f35b34801561028b57600080fd5b506102a660048036038101906102a1919061285b565b61076e565b005b3480156102b457600080fd5b506102cf60048036038101906102ca91906128b7565b61082e565b005b3480156102dd57600080fd5b506102f860048036038101906102f391906125f4565b610930565b604051610305919061259c565b60405180910390f35b34801561031a57600080fd5b506103236109e0565b005b34801561033157600080fd5b5061034c600480360381019061034791906128b7565b610a94565b005b34801561035a57600080fd5b50610363610ab4565b60405161037091906129b5565b60405180910390f35b34801561038557600080fd5b506103a0600480360381019061039b91906125f4565b610adf565b6040516103ad9190612662565b60405180910390f35b3480156103c257600080fd5b506103cb610af1565b6040516103d891906126f8565b60405180910390f35b3480156103ed57600080fd5b50610408600480360381019061040391906129d0565b610afb565b60405161041591906126f8565b60405180910390f35b34801561042a57600080fd5b50610433610bb5565b005b34801561044157600080fd5b5061044a610bc9565b60405161045791906126f8565b60405180910390f35b34801561046c57600080fd5b50610475610bf1565b6040516104829190612662565b60405180910390f35b34801561049757600080fd5b506104a0610c1b565b6040516104ad919061259c565b60405180910390f35b3480156104c257600080fd5b506104dd60048036038101906104d89190612a29565b610cad565b005b3480156104eb57600080fd5b50610506600480360381019061050191906125f4565b610cc3565b6040516105139190612662565b60405180910390f35b34801561052857600080fd5b50610543600480360381019061053e91906125f4565b610cf6565b6040516105509190612ae0565b60405180910390f35b610561610dd2565b60405161056e91906126f8565b60405180910390f35b34801561058357600080fd5b5061059e60048036038101906105999190612bb0565b610fc3565b005b3480156105ac57600080fd5b506105c760048036038101906105c291906125f4565b610fe0565b6040516105d4919061259c565b60405180910390f35b3480156105e957600080fd5b5061060460048036038101906105ff9190612c33565b6110f3565b60405161061191906124f1565b60405180910390f35b34801561062657600080fd5b50610641600480360381019061063c91906129d0565b611187565b005b6000634906490660e01b7bffffffffffffffffffffffffffffffffffffffffffffffffffffffff1916827bffffffffffffffffffffffffffffffffffffffffffffffffffffffff1916148061069d575061069c8261120d565b5b9050919050565b6060600080546106b390612ca2565b80601f01602080910402602001604051908101604052809291908181526020018280546106df90612ca2565b801561072c5780601f106107015761010080835404028352916020019161072c565b820191906000526020600020905b81548152906001019060200180831161070f57829003601f168201915b5050505050905090565b6000610741826112ef565b5061074b82611377565b9050919050565b610764828261075f6113b4565b6113bc565b5050565b60095481565b7f000000000000000000000000000000000000000000000000000000000000000073ffffffffffffffffffffffffffffffffffffffff163373ffffffffffffffffffffffffffffffffffffffff161461082057337f00000000000000000000000000000000000000000000000000000000000000006040517f1cf993f4000000000000000000000000000000000000000000000000000000008152600401610817929190612cd3565b60405180910390fd5b61082a82826113ce565b5050565b600073ffffffffffffffffffffffffffffffffffffffff168273ffffffffffffffffffffffffffffffffffffffff16036108a05760006040517f64a0ae920000000000000000000000000000000000000000000000000000000081526004016108979190612662565b60405180910390fd5b60006108b483836108af6113b4565b61156d565b90508373ffffffffffffffffffffffffffffffffffffffff168173ffffffffffffffffffffffffffffffffffffffff161461092a578382826040517f64283d7b00000000000000000000000000000000000000000000000000000000815260040161092193929190612cfc565b60405180910390fd5b50505050565b6060600a828154811061094657610945612d33565b5b90600052602060002001805461095b90612ca2565b80601f016020809104026020016040519081016040528092919081815260200182805461098790612ca2565b80156109d45780601f106109a9576101008083540402835291602001916109d4565b820191906000526020600020905b8154815290600101906020018083116109b757829003601f168201915b50505050509050919050565b6109e8611787565b600047905060003373ffffffffffffffffffffffffffffffffffffffff1682604051610a1390612d93565b60006040518083038185875af1925050503d8060008114610a50576040519150601f19603f3d011682016040523d82523d6000602084013e610a55565b606091505b5050905080610a90576040517fca7e25b700000000000000000000000000000000000000000000000000000000815260040160405180910390fd5b5050565b610aaf83838360405180602001604052806000815250610fc3565b505050565b610abc61241b565b6040518060600160405280600a8152602001601e81526020016064815250905090565b6000610aea826112ef565b9050919050565b6000600954905090565b60008073ffffffffffffffffffffffffffffffffffffffff168273ffffffffffffffffffffffffffffffffffffffff1603610b6e5760006040517f89c62b64000000000000000000000000000000000000000000000000000000008152600401610b659190612662565b60405180910390fd5b600360008373ffffffffffffffffffffffffffffffffffffffff1673ffffffffffffffffffffffffffffffffffffffff168152602001908152602001600020549050919050565b610bbd611787565b610bc7600061180e565b565b60007f0000000000000000000000000000000000000000000000000000000000000000905090565b6000600760009054906101000a900473ffffffffffffffffffffffffffffffffffffffff16905090565b606060018054610c2a90612ca2565b80601f0160208091040260200160405190810160405280929190818152602001828054610c5690612ca2565b8015610ca35780601f10610c7857610100808354040283529160200191610ca3565b820191906000526020600020905b815481529060010190602001808311610c8657829003601f168201915b5050505050905090565b610cbf610cb86113b4565b83836118d4565b5050565b60086020528060005260406000206000915054906101000a900473ffffffffffffffffffffffffffffffffffffffff1681565b600080600090506000610d07610ab4565b905060005b6003811015610d9a57828510158015610d465750818160038110610d3357610d32612d33565b5b602002015183610d439190612dd7565b85105b15610d6857806002811115610d5e57610d5d612a69565b5b9350505050610dcd565b818160038110610d7b57610d7a612d33565b5b602002015183610d8b9190612dd7565b92508080600101915050610d0c565b506040517f12806c9d00000000000000000000000000000000000000000000000000000000815260040160405180910390fd5b919050565b60007f0000000000000000000000000000000000000000000000000000000000000000341015610e2e576040517fb90f491000000000000000000000000000000000000000000000000000000000815260040160405180910390fd5b7f000000000000000000000000000000000000000000000000000000000000000073ffffffffffffffffffffffffffffffffffffffff16635d3b1d307f00000000000000000000000000000000000000000000000000000000000000007f000000000000000000000000000000000000000000000000000000000000000060037f000000000000000000000000000000000000000000000000000000000000000060016040518663ffffffff1660e01b8152600401610ef1959493929190612e83565b6020604051808303816000875af1158015610f10573d6000803e3d6000fd5b505050506040513d601f19601f82011682018060405250810190610f349190612eeb565b9050336008600083815260200190815260200160002060006101000a81548173ffffffffffffffffffffffffffffffffffffffff021916908373ffffffffffffffffffffffffffffffffffffffff160217905550807ff873236e6cc0ecc5be1a9a35c95ee5b8d1ac4cc7bfef0cc5060391d6cc98e26b33604051610fb89190612662565b60405180910390a290565b610fce84848461082e565b610fda84848484611a43565b50505050565b6060610feb826112ef565b50600060066000848152602001908152602001600020805461100c90612ca2565b80601f016020809104026020016040519081016040528092919081815260200182805461103890612ca2565b80156110855780601f1061105a57610100808354040283529160200191611085565b820191906000526020600020905b81548152906001019060200180831161106857829003601f168201915b505050505090506000611096611bfa565b905060008151036110ab5781925050506110ee565b6000825111156110e05780826040516020016110c8929190612f54565b604051602081830303815290604052925050506110ee565b6110e984611c11565b925050505b919050565b6000600560008473ffffffffffffffffffffffffffffffffffffffff1673ffffffffffffffffffffffffffffffffffffffff16815260200190815260200160002060008373ffffffffffffffffffffffffffffffffffffffff1673ffffffffffffffffffffffffffffffffffffffff16815260200190815260200160002060009054906101000a900460ff16905092915050565b61118f611787565b600073ffffffffffffffffffffffffffffffffffffffff168173ffffffffffffffffffffffffffffffffffffffff16036112015760006040517f1e4fbdf70000000000000000000000000000000000000000000000000000000081526004016111f89190612662565b60405180910390fd5b61120a8161180e565b50565b60007f80ac58cd000000000000000000000000000000000000000000000000000000007bffffffffffffffffffffffffffffffffffffffffffffffffffffffff1916827bffffffffffffffffffffffffffffffffffffffffffffffffffffffff191614806112d857507f5b5e139f000000000000000000000000000000000000000000000000000000007bffffffffffffffffffffffffffffffffffffffffffffffffffffffff1916827bffffffffffffffffffffffffffffffffffffffffffffffffffffffff1916145b806112e857506112e782611c7a565b5b9050919050565b6000806112fb83611ce4565b9050600073ffffffffffffffffffffffffffffffffffffffff168173ffffffffffffffffffffffffffffffffffffffff160361136e57826040517f7e27328900000000000000000000000000000000000000000000000000000000815260040161136591906126f8565b60405180910390fd5b80915050919050565b60006004600083815260200190815260200160002060009054906101000a900473ffffffffffffffffffffffffffffffffffffffff169050919050565b600033905090565b6113c98383836001611d21565b505050565b60006008600084815260200190815260200160002060009054906101000a900473ffffffffffffffffffffffffffffffffffffffff16905060006009549050600060648460008151811061142557611424612d33565b5b60200260200101516114379190612fa7565b9050600061144482610cf6565b90506001600960008282546114599190612dd7565b9250508190555061146a8484611ee6565b61152c83600a83600281111561148357611482612a69565b5b8154811061149457611493612d33565b5b9060005260206000200180546114a990612ca2565b80601f01602080910402602001604051908101604052809291908181526020018280546114d590612ca2565b80156115225780601f106114f757610100808354040283529160200191611522565b820191906000526020600020905b81548152906001019060200180831161150557829003601f168201915b5050505050611f04565b7f8a269f26b688e110e9cbd887d163dab35cae678fa353a0292de532c0cac1ecdc818560405161155d929190612fd8565b60405180910390a1505050505050565b60008061157984611ce4565b9050600073ffffffffffffffffffffffffffffffffffffffff168373ffffffffffffffffffffffffffffffffffffffff16146115bb576115ba818486611f60565b5b600073ffffffffffffffffffffffffffffffffffffffff168173ffffffffffffffffffffffffffffffffffffffff161461164c576115fd600085600080611d21565b6001600360008373ffffffffffffffffffffffffffffffffffffffff1673ffffffffffffffffffffffffffffffffffffffff168152602001908152602001600020600082825403925050819055505b600073ffffffffffffffffffffffffffffffffffffffff168573ffffffffffffffffffffffffffffffffffffffff16146116cf576001600360008773ffffffffffffffffffffffffffffffffffffffff1673ffffffffffffffffffffffffffffffffffffffff168152602001908152602001600020600082825401925050819055505b846002600086815260200190815260200160002060006101000a81548173ffffffffffffffffffffffffffffffffffffffff021916908373ffffffffffffffffffffffffffffffffffffffff160217905550838573ffffffffffffffffffffffffffffffffffffffff168273ffffffffffffffffffffffffffffffffffffffff167fddf252ad1be2c89b69c2b068fc378daa952ba7f163c4a11628f55a4df523b3ef60405160405180910390a4809150509392505050565b61178f6113b4565b73ffffffffffffffffffffffffffffffffffffffff166117ad610bf1565b73ffffffffffffffffffffffffffffffffffffffff161461180c576117d06113b4565b6040517f118cdaa70000000000000000000000000000000000000000000000000000000081526004016118039190612662565b60405180910390fd5b565b6000600760009054906101000a900473ffffffffffffffffffffffffffffffffffffffff16905081600760006101000a81548173ffffffffffffffffffffffffffffffffffffffff021916908373ffffffffffffffffffffffffffffffffffffffff1602179055508173ffffffffffffffffffffffffffffffffffffffff168173ffffffffffffffffffffffffffffffffffffffff167f8be0079c531659141344cd1fd0a4f28419497f9722a3daafe3b4186f6b6457e060405160405180910390a35050565b600073ffffffffffffffffffffffffffffffffffffffff168273ffffffffffffffffffffffffffffffffffffffff160361194557816040517f5b08ba1800000000000000000000000000000000000000000000000000000000815260040161193c9190612662565b60405180910390fd5b80600560008573ffffffffffffffffffffffffffffffffffffffff1673ffffffffffffffffffffffffffffffffffffffff16815260200190815260200160002060008473ffffffffffffffffffffffffffffffffffffffff1673ffffffffffffffffffffffffffffffffffffffff16815260200190815260200160002060006101000a81548160ff0219169083151502179055508173ffffffffffffffffffffffffffffffffffffffff168373ffffffffffffffffffffffffffffffffffffffff167f17307eab39ab6107e8899845ad3d59bd9653f200f220920489ca2b5937696c3183604051611a3691906124f1565b60405180910390a3505050565b60008373ffffffffffffffffffffffffffffffffffffffff163b1115611bf4578273ffffffffffffffffffffffffffffffffffffffff1663150b7a02611a876113b4565b8685856040518563ffffffff1660e01b8152600401611aa99493929190613056565b6020604051808303816000875af1925050508015611ae557506040513d601f19601f82011682018060405250810190611ae291906130b7565b60015b611b69573d8060008114611b15576040519150601f19603f3d011682016040523d82523d6000602084013e611b1a565b606091505b506000815103611b6157836040517f64a0ae92000000000000000000000000000000000000000000000000000000008152600401611b589190612662565b60405180910390fd5b805181602001fd5b63150b7a0260e01b7bffffffffffffffffffffffffffffffffffffffffffffffffffffffff1916817bffffffffffffffffffffffffffffffffffffffffffffffffffffffff191614611bf257836040517f64a0ae92000000000000000000000000000000000000000000000000000000008152600401611be99190612662565b60405180910390fd5b505b50505050565b606060405180602001604052806000815250905090565b6060611c1c826112ef565b506000611c27611bfa565b90506000815111611c475760405180602001604052806000815250611c72565b80611c5184612024565b604051602001611c62929190612f54565b6040516020818303038152906040525b915050919050565b60007f01ffc9a7000000000000000000000000000000000000000000000000000000007bffffffffffffffffffffffffffffffffffffffffffffffffffffffff1916827bffffffffffffffffffffffffffffffffffffffffffffffffffffffff1916149050919050565b60006002600083815260200190815260200160002060009054906101000a900473ffffffffffffffffffffffffffffffffffffffff169050919050565b8080611d5a5750600073ffffffffffffffffffffffffffffffffffffffff168273ffffffffffffffffffffffffffffffffffffffff1614155b15611e8e576000611d6a846112ef565b9050600073ffffffffffffffffffffffffffffffffffffffff168373ffffffffffffffffffffffffffffffffffffffff1614158015611dd557508273ffffffffffffffffffffffffffffffffffffffff168173ffffffffffffffffffffffffffffffffffffffff1614155b8015611de85750611de681846110f3565b155b15611e2a57826040517fa9fbf51f000000000000000000000000000000000000000000000000000000008152600401611e219190612662565b60405180910390fd5b8115611e8c57838573ffffffffffffffffffffffffffffffffffffffff168273ffffffffffffffffffffffffffffffffffffffff167f8c5be1e5ebec7d5bd14f71427d1e84f3dd0314c0f7b2291e5b200ac8c7c3b92560405160405180910390a45b505b836004600085815260200190815260200160002060006101000a81548173ffffffffffffffffffffffffffffffffffffffff021916908373ffffffffffffffffffffffffffffffffffffffff16021790555050505050565b611f008282604051806020016040528060008152506120f2565b5050565b80600660008481526020019081526020016000209081611f249190613290565b507ff8e1a15aba9398e019f0b49df1a4fde98ee17ae345cb5f6b5e2c27f5033e8ce782604051611f5491906126f8565b60405180910390a15050565b611f6b83838361210e565b61201f57600073ffffffffffffffffffffffffffffffffffffffff168373ffffffffffffffffffffffffffffffffffffffff1603611fe057806040517f7e273289000000000000000000000000000000000000000000000000000000008152600401611fd791906126f8565b60405180910390fd5b81816040517f177e802f000000000000000000000000000000000000000000000000000000008152600401612016929190613362565b60405180910390fd5b505050565b606060006001612033846121cf565b01905060008167ffffffffffffffff81111561205257612051612718565b5b6040519080825280601f01601f1916602001820160405280156120845781602001600182028036833780820191505090505b509050600082602001820190505b6001156120e7578080600190039150507f3031323334353637383961626364656600000000000000000000000000000000600a86061a8153600a85816120db576120da612f78565b5b04945060008503612092575b819350505050919050565b6120fc8383612322565b6121096000848484611a43565b505050565b60008073ffffffffffffffffffffffffffffffffffffffff168373ffffffffffffffffffffffffffffffffffffffff16141580156121c657508273ffffffffffffffffffffffffffffffffffffffff168473ffffffffffffffffffffffffffffffffffffffff161480612187575061218684846110f3565b5b806121c557508273ffffffffffffffffffffffffffffffffffffffff166121ad83611377565b73ffffffffffffffffffffffffffffffffffffffff16145b5b90509392505050565b600080600090507a184f03e93ff9f4daa797ed6e38ed64bf6a1f010000000000000000831061222d577a184f03e93ff9f4daa797ed6e38ed64bf6a1f010000000000000000838161222357612222612f78565b5b0492506040810190505b6d04ee2d6d415b85acef8100000000831061226a576d04ee2d6d415b85acef810000000083816122605761225f612f78565b5b0492506020810190505b662386f26fc10000831061229957662386f26fc10000838161228f5761228e612f78565b5b0492506010810190505b6305f5e10083106122c2576305f5e10083816122b8576122b7612f78565b5b0492506008810190505b61271083106122e75761271083816122dd576122dc612f78565b5b0492506004810190505b6064831061230a5760648381612300576122ff612f78565b5b0492506002810190505b600a8310612319576001810190505b80915050919050565b600073ffffffffffffffffffffffffffffffffffffffff168273ffffffffffffffffffffffffffffffffffffffff16036123945760006040517f64a0ae9200000000000000000000000000000000000000000000000000000000815260040161238b9190612662565b60405180910390fd5b60006123a28383600061156d565b9050600073ffffffffffffffffffffffffffffffffffffffff168173ffffffffffffffffffffffffffffffffffffffff16146124165760006040517f73c6ac6e00000000000000000000000000000000000000000000000000000000815260040161240d9190612662565b60405180910390fd5b505050565b6040518060600160405280600390602082028036833780820191505090505090565b6000604051905090565b600080fd5b600080fd5b60007fffffffff0000000000000000000000000000000000000000000000000000000082169050919050565b61248681612451565b811461249157600080fd5b50565b6000813590506124a38161247d565b92915050565b6000602082840312156124bf576124be612447565b5b60006124cd84828501612494565b91505092915050565b60008115159050919050565b6124eb816124d6565b82525050565b600060208201905061250660008301846124e2565b92915050565b600081519050919050565b600082825260208201905092915050565b60005b8381101561254657808201518184015260208101905061252b565b60008484015250505050565b6000601f19601f8301169050919050565b600061256e8261250c565b6125788185612517565b9350612588818560208601612528565b61259181612552565b840191505092915050565b600060208201905081810360008301526125b68184612563565b905092915050565b6000819050919050565b6125d1816125be565b81146125dc57600080fd5b50565b6000813590506125ee816125c8565b92915050565b60006020828403121561260a57612609612447565b5b6000612618848285016125df565b91505092915050565b600073ffffffffffffffffffffffffffffffffffffffff82169050919050565b600061264c82612621565b9050919050565b61265c81612641565b82525050565b60006020820190506126776000830184612653565b92915050565b61268681612641565b811461269157600080fd5b50565b6000813590506126a38161267d565b92915050565b600080604083850312156126c0576126bf612447565b5b60006126ce85828601612694565b92505060206126df858286016125df565b9150509250929050565b6126f2816125be565b82525050565b600060208201905061270d60008301846126e9565b92915050565b600080fd5b7f4e487b7100000000000000000000000000000000000000000000000000000000600052604160045260246000fd5b61275082612552565b810181811067ffffffffffffffff8211171561276f5761276e612718565b5b80604052505050565b600061278261243d565b905061278e8282612747565b919050565b600067ffffffffffffffff8211156127ae576127ad612718565b5b602082029050602081019050919050565b600080fd5b60006127d76127d284612793565b612778565b905080838252602082019050602084028301858111156127fa576127f96127bf565b5b835b81811015612823578061280f88826125df565b8452602084019350506020810190506127fc565b5050509392505050565b600082601f83011261284257612841612713565b5b81356128528482602086016127c4565b91505092915050565b6000806040838503121561287257612871612447565b5b6000612880858286016125df565b925050602083013567ffffffffffffffff8111156128a1576128a061244c565b5b6128ad8582860161282d565b9150509250929050565b6000806000606084860312156128d0576128cf612447565b5b60006128de86828701612694565b93505060206128ef86828701612694565b9250506040612900868287016125df565b9150509250925092565b600060039050919050565b600081905092915050565b6000819050919050565b612933816125be565b82525050565b6000612945838361292a565b60208301905092915050565b6000602082019050919050565b6129678161290a565b6129718184612915565b925061297c82612920565b8060005b838110156129ad5781516129948782612939565b965061299f83612951565b925050600181019050612980565b505050505050565b60006060820190506129ca600083018461295e565b92915050565b6000602082840312156129e6576129e5612447565b5b60006129f484828501612694565b91505092915050565b612a06816124d6565b8114612a1157600080fd5b50565b600081359050612a23816129fd565b92915050565b60008060408385031215612a4057612a3f612447565b5b6000612a4e85828601612694565b9250506020612a5f85828601612a14565b9150509250929050565b7f4e487b7100000000000000000000000000000000000000000000000000000000600052602160045260246000fd5b60038110612aa957612aa8612a69565b5b50565b6000819050612aba82612a98565b919050565b6000612aca82612aac565b9050919050565b612ada81612abf565b82525050565b6000602082019050612af56000830184612ad1565b92915050565b600080fd5b600067ffffffffffffffff821115612b1b57612b1a612718565b5b612b2482612552565b9050602081019050919050565b82818337600083830152505050565b6000612b53612b4e84612b00565b612778565b905082815260208101848484011115612b6f57612b6e612afb565b5b612b7a848285612b31565b509392505050565b600082601f830112612b9757612b96612713565b5b8135612ba7848260208601612b40565b91505092915050565b60008060008060808587031215612bca57612bc9612447565b5b6000612bd887828801612694565b9450506020612be987828801612694565b9350506040612bfa878288016125df565b925050606085013567ffffffffffffffff811115612c1b57612c1a61244c565b5b612c2787828801612b82565b91505092959194509250565b60008060408385031215612c4a57612c49612447565b5b6000612c5885828601612694565b9250506020612c6985828601612694565b9150509250929050565b7f4e487b7100000000000000000000000000000000000000000000000000000000600052602260045260246000fd5b60006002820490506001821680612cba57607f821691505b602082108103612ccd57612ccc612c73565b5b50919050565b6000604082019050612ce86000830185612653565b612cf56020830184612653565b9392505050565b6000606082019050612d116000830186612653565b612d1e60208301856126e9565b612d2b6040830184612653565b949350505050565b7f4e487b7100000000000000000000000000000000000000000000000000000000600052603260045260246000fd5b600081905092915050565b50565b6000612d7d600083612d62565b9150612d8882612d6d565b600082019050919050565b6000612d9e82612d70565b9150819050919050565b7f4e487b7100000000000000000000000000000000000000000000000000000000600052601160045260246000fd5b6000612de2826125be565b9150612ded836125be565b9250828201905080821115612e0557612e04612da8565b5b92915050565b6000819050919050565b612e1e81612e0b565b82525050565b600067ffffffffffffffff82169050919050565b612e4181612e24565b82525050565b600061ffff82169050919050565b612e5e81612e47565b82525050565b600063ffffffff82169050919050565b612e7d81612e64565b82525050565b600060a082019050612e986000830188612e15565b612ea56020830187612e38565b612eb26040830186612e55565b612ebf6060830185612e74565b612ecc6080830184612e74565b9695505050505050565b600081519050612ee5816125c8565b92915050565b600060208284031215612f0157612f00612447565b5b6000612f0f84828501612ed6565b91505092915050565b600081905092915050565b6000612f2e8261250c565b612f388185612f18565b9350612f48818560208601612528565b80840191505092915050565b6000612f608285612f23565b9150612f6c8284612f23565b91508190509392505050565b7f4e487b7100000000000000000000000000000000000000000000000000000000600052601260045260246000fd5b6000612fb2826125be565b9150612fbd836125be565b925082612fcd57612fcc612f78565b5b828206905092915050565b6000604082019050612fed6000830185612ad1565b612ffa6020830184612653565b9392505050565b600081519050919050565b600082825260208201905092915050565b600061302882613001565b613032818561300c565b9350613042818560208601612528565b61304b81612552565b840191505092915050565b600060808201905061306b6000830187612653565b6130786020830186612653565b61308560408301856126e9565b8181036060830152613097818461301d565b905095945050505050565b6000815190506130b18161247d565b92915050565b6000602082840312156130cd576130cc612447565b5b60006130db848285016130a2565b91505092915050565b60008190508160005260206000209050919050565b60006020601f8301049050919050565b600082821b905092915050565b6000600883026131467fffffffffffffffffffffffffffffffffffffffffffffffffffffffffffffffff82613109565b6131508683613109565b95508019841693508086168417925050509392505050565b6000819050919050565b600061318d613188613183846125be565b613168565b6125be565b9050919050565b6000819050919050565b6131a783613172565b6131bb6131b382613194565b848454613116565b825550505050565b600090565b6131d06131c3565b6131db81848461319e565b505050565b5b818110156131ff576131f46000826131c8565b6001810190506131e1565b5050565b601f82111561324457613215816130e4565b61321e846130f9565b8101602085101561322d578190505b613241613239856130f9565b8301826131e0565b50505b505050565b600082821c905092915050565b600061326760001984600802613249565b1980831691505092915050565b60006132808383613256565b9150826002028217905092915050565b6132998261250c565b67ffffffffffffffff8111156132b2576132b1612718565b5b6132bc8254612ca2565b6132c7828285613203565b600060209050601f8311600181146132fa57600084156132e8578287015190505b6132f28582613274565b86555061335a565b601f198416613308866130e4565b60005b828110156133305784890151825560018201915060208501945060208101905061330b565b8683101561334d5784890151613349601f891682613256565b8355505b6001600288020188555050505b505050505050565b60006040820190506133776000830185612653565b61338460208301846126e9565b939250505056fea26469706673582212201ac7f76a8f19ee13ba30195d094aab3e71030730fbdc75d30347d2e41d56305464736f6c63430008180033",
  "devdoc": {
    "errors": {
      "ERC721IncorrectOwner(address,uint256,address)": [
        {
          "details": "Indicates an error related to the ownership over a particular token. Used in transfers.",
          "params": {
            "owner": "Address of the current owner of a token.",
            "sender": "Address whose tokens are being transferred.",
            "tokenId": "Identifier number of a token."
          }
        }
      ],
      "ERC721InsufficientApproval(address,uint256)": [
        {
          "details": "Indicates a failure with the `operator`s approval. Used in transfers.",
          "params": {
            "operator": "Address that may be allowed to operate on tokens without being their owner.",
            "tokenId": "Identifier number of a token."
          }
        }
      ],
      "ERC721InvalidApprover(address)": [
        {
          "details": "Indicates a failure with the `approver` of a token to be approved. Used in approvals.",
          "params": {
            "approver": "Address initiating an approval operation."
          }
        }
      ],
      "ERC721InvalidOperator(address)": [
        {
          "details": "Indicates a failure with the `operator` to be approved. Used in approvals.",
          "params": {
            "operator": "Address that may be allowed to operate on tokens without being their owner."
          }
        }
      ],
      "ERC721InvalidOwner(address)": [
        {
          "details": "Indicates that an address can't be an owner. For example, `address(0)` is a forbidden owner in EIP-20. Used in balance queries.",
          "params": {
            "owner": "Address of the current owner of a token."
          }
        }
      ],
      "ERC721InvalidReceiver(address)": [
        {
          "details": "Indicates a failure with the token `receiver`. Used in transfers.",
          "params": {
            "receiver": "Address to which tokens are being transferred."
          }
        }
      ],
      "ERC721InvalidSender(address)": [
        {
          "details": "Indicates a failure with the token `sender`. Used in transfers.",
          "params": {
            "sender": "Address whose tokens are being transferred."
          }
        }
      ],
      "ERC721NonexistentToken(uint256)": [
        {
          "details": "Indicates a `tokenId` whose `owner` is the zero address.",
          "params": {
            "tokenId": "Identifier number of a token."
          }
        }
      ],
      "OwnableInvalidOwner(address)": [
        {
          "details": "The owner is not a valid owner account. (eg. `address(0)`)"
        }
      ],
      "OwnableUnauthorizedAccount(address)": [
        {
          "details": "The caller account is not authorized to perform an operation."
        }
      ]
    },
    "events": {
      "Approval(address,address,uint256)": {
        "details": "Emitted when `owner` enables `approved` to manage the `tokenId` token."
      },
      "ApprovalForAll(address,address,bool)": {
        "details": "Emitted when `owner` enables or disables (`approved`) `operator` to manage all of its assets."
      },
      "BatchMetadataUpdate(uint256,uint256)": {
        "details": "This event emits when the metadata of a range of tokens is changed. So that the third-party platforms such as NFT market could timely update the images and related attributes of the NFTs."
      },
      "MetadataUpdate(uint256)": {
        "details": "This event emits when the metadata of a token is changed. So that the third-party platforms such as NFT market could timely update the images and related attributes of the NFT."
      },
      "Transfer(address,address,uint256)": {
        "details": "Emitted when `tokenId` token is transferred from `from` to `to`."
      }
    },
    "kind": "dev",
    "methods": {
      "approve(address,uint256)": {
        "details": "See {IERC721-approve}."
      },
      "balanceOf(address)": {
        "details": "See {IERC721-balanceOf}."
      },
      "getApproved(uint256)": {
        "details": "See {IERC721-getApproved}."
      },
      "isApprovedForAll(address,address)": {
        "details": "See {IERC721-isApprovedForAll}."
      },
      "name()": {
        "details": "See {IERC721Metadata-name}."
      },
      "owner()": {
        "details": "Returns the address of the current owner."
      },
      "ownerOf(uint256)": {
        "details": "See {IERC721-ownerOf}."
      },
      "renounceOwnership()": {
        "details": "Leaves the contract without owner. It will not be possible to call `onlyOwner` functions. Can only be called by the current owner. NOTE: Renouncing ownership will leave the contract without an owner, thereby disabling any functionality that is only available to the owner."
      },
      "safeTransferFrom(address,address,uint256)": {
        "details": "See {IERC721-safeTransferFrom}."
      },
      "safeTransferFrom(address,address,uint256,bytes)": {
        "details": "See {IERC721-safeTransferFrom}."
      },
      "setApprovalForAll(address,bool)": {
        "details": "See {IERC721-setApprovalForAll}."
      },
      "supportsInterface(bytes4)": {
        "details": "See {IERC165-supportsInterface}"
      },
      "symbol()": {
        "details": "See {IERC721Metadata-symbol}."
      },
      "tokenURI(uint256)": {
        "details": "See {IERC721Metadata-tokenURI}."
      },
      "transferFrom(address,address,uint256)": {
        "details": "See {IERC721-transferFrom}."
      },
      "transferOwnership(address)": {
        "details": "Transfers ownership of the contract to a new account (`newOwner`). Can only be called by the current owner."
      }
    },
    "version": 1
  },
  "userdoc": {
    "kind": "user",
    "methods": {},
    "version": 1
  },
  "storageLayout": {
    "storage": [
      {
        "astId": 503,
        "contract": "contracts/RandomIpfsNft.sol:RandomIpfsNft",
        "label": "_name",
        "offset": 0,
        "slot": "0",
        "type": "t_string_storage"
      },
      {
        "astId": 505,
        "contract": "contracts/RandomIpfsNft.sol:RandomIpfsNft",
        "label": "_symbol",
        "offset": 0,
        "slot": "1",
        "type": "t_string_storage"
      },
      {
        "astId": 509,
        "contract": "contracts/RandomIpfsNft.sol:RandomIpfsNft",
        "label": "_owners",
        "offset": 0,
        "slot": "2",
        "type": "t_mapping(t_uint256,t_address)"
      },
      {
        "astId": 513,
        "contract": "contracts/RandomIpfsNft.sol:RandomIpfsNft",
        "label": "_balances",
        "offset": 0,
        "slot": "3",
        "type": "t_mapping(t_address,t_uint256)"
      },
      {
        "astId": 517,
        "contract": "contracts/RandomIpfsNft.sol:RandomIpfsNft",
        "label": "_tokenApprovals",
        "offset": 0,
        "slot": "4",
        "type": "t_mapping(t_uint256,t_address)"
      },
      {
        "astId": 523,
        "contract": "contracts/RandomIpfsNft.sol:RandomIpfsNft",
        "label": "_operatorApprovals",
        "offset": 0,
        "slot": "5",
        "type": "t_mapping(t_address,t_mapping(t_address,t_bool))"
      },
      {
        "astId": 1642,
        "contract": "contracts/RandomIpfsNft.sol:RandomIpfsNft",
        "label": "_tokenURIs",
        "offset": 0,
        "slot": "6",
        "type": "t_mapping(t_uint256,t_string_storage)"
      },
      {
        "astId": 162,
        "contract": "contracts/RandomIpfsNft.sol:RandomIpfsNft",
        "label": "_owner",
        "offset": 0,
        "slot": "7",
        "type": "t_address"
      },
      {
        "astId": 3291,
        "contract": "contracts/RandomIpfsNft.sol:RandomIpfsNft",
        "label": "s_requestIdToSender",
        "offset": 0,
        "slot": "8",
        "type": "t_mapping(t_uint256,t_address)"
      },
      {
        "astId": 3293,
        "contract": "contracts/RandomIpfsNft.sol:RandomIpfsNft",
        "label": "s_tokenCounter",
        "offset": 0,
        "slot": "9",
        "type": "t_uint256"
      },
      {
        "astId": 3299,
        "contract": "contracts/RandomIpfsNft.sol:RandomIpfsNft",
        "label": "s_dogTokenUris",
        "offset": 0,
        "slot": "10",
        "type": "t_array(t_string_storage)dyn_storage"
      }
    ],
    "types": {
      "t_address": {
        "encoding": "inplace",
        "label": "address",
        "numberOfBytes": "20"
      },
      "t_array(t_string_storage)dyn_storage": {
        "base": "t_string_storage",
        "encoding": "dynamic_array",
        "label": "string[]",
        "numberOfBytes": "32"
      },
      "t_bool": {
        "encoding": "inplace",
        "label": "bool",
        "numberOfBytes": "1"
      },
      "t_mapping(t_address,t_bool)": {
        "encoding": "mapping",
        "key": "t_address",
        "label": "mapping(address => bool)",
        "numberOfBytes": "32",
        "value": "t_bool"
      },
      "t_mapping(t_address,t_mapping(t_address,t_bool))": {
        "encoding": "mapping",
        "key": "t_address",
        "label": "mapping(address => mapping(address => bool))",
        "numberOfBytes": "32",
        "value": "t_mapping(t_address,t_bool)"
      },
      "t_mapping(t_address,t_uint256)": {
        "encoding": "mapping",
        "key": "t_address",
        "label": "mapping(address => uint256)",
        "numberOfBytes": "32",
        "value": "t_uint256"
      },
      "t_mapping(t_uint256,t_address)": {
        "encoding": "mapping",
        "key": "t_uint256",
        "label": "mapping(uint256 => address)",
        "numberOfBytes": "32",
        "value": "t_address"
      },
      "t_mapping(t_uint256,t_string_storage)": {
        "encoding": "mapping",
        "key": "t_uint256",
        "label": "mapping(uint256 => string)",
        "numberOfBytes": "32",
        "value": "t_string_storage"
      },
      "t_string_storage": {
        "encoding": "bytes",
        "label": "string",
        "numberOfBytes": "32"
      },
      "t_uint256": {
        "encoding": "inplace",
        "label": "uint256",
        "numberOfBytes": "32"
      }
    }
  }
}