{
  "address": "0x5FbDB2315678afecb367f032d93F642f64180aa3",
  "abi": [
    {
      "inputs": [
        {
          "internalType": "uint96",
          "name": "_baseFee",
          "type": "uint96"
        },
        {
          "internalType": "uint96",
          "name": "_gasPriceLink",
          "type": "uint96"
        }
      ],
      "stateMutability": "nonpayable",
      "type": "constructor"
    },
    {
      "inputs": [],
      "name": "InsufficientBalance",
      "type": "error"
    },
    {
      "inputs": [],
      "name": "InvalidConsumer",
      "type": "error"
    },
    {
      "inputs": [],
      "name": "InvalidRandomWords",
      "type": "error"
    },
    {
      "inputs": [],
      "name": "InvalidSubscription",
      "type": "error"
    },
    {
      "inputs": [
        {
          "internalType": "address",
          "name": "owner",
          "type": "address"
        }
      ],
      "name": "MustBeSubOwner",
      "type": "error"
    },
    {
      "inputs": [],
      "name": "Reentrant",
      "type": "error"
    },
    {
      "inputs": [],
      "name": "TooManyConsumers",
      "type": "error"
    },
    {
      "anonymous": false,
      "inputs": [],
      "name": "ConfigSet",
      "type": "event"
    },
    {
      "anonymous": false,
      "inputs": [
        {
          "indexed": true,
          "internalType": "uint64",
          "name": "subId",
          "type": "uint64"
        },
        {
          "indexed": false,
          "internalType": "address",
          "name": "consumer",
          "type": "address"
        }
      ],
      "name": "ConsumerAdded",
      "type": "event"
    },
    {
      "anonymous": false,
      "inputs": [
        {
          "indexed": true,
          "internalType": "uint64",
          "name": "subId",
          "type": "uint64"
        },
        {
          "indexed": false,
          "internalType": "address",
          "name": "consumer",
          "type": "address"
        }
      ],
      "name": "ConsumerRemoved",
      "type": "event"
    },
    {
      "anonymous": false,
      "inputs": [
        {
          "indexed": true,
          "internalType": "address",
          "name": "from",
          "type": "address"
        },
        {
          "indexed": true,
          "internalType": "address",
          "name": "to",
          "type": "address"
        }
      ],
      "name": "OwnershipTransferRequested",
      "type": "event"
    },
    {
      "anonymous": false,
      "inputs": [
        {
          "indexed": true,
          "internalType": "address",
          "name": "from",
          "type": "address"
        },
        {
          "indexed": true,
          "internalType": "address",
          "name": "to",
          "type": "address"
        }
      ],
      "name": "OwnershipTransferred",
      "type": "event"
    },
    {
      "anonymous": false,
      "inputs": [
        {
          "indexed": true,
          "internalType": "uint256",
          "name": "requestId",
          "type": "uint256"
        },
        {
          "indexed": false,
          "internalType": "uint256",
          "name": "outputSeed",
          "type": "uint256"
        },
        {
          "indexed": false,
          "internalType": "uint96",
          "name": "payment",
          "type": "uint96"
        },
        {
          "indexed": false,
          "internalType": "bool",
          "name": "success",
          "type": "bool"
        }
      ],
      "name": "RandomWordsFulfilled",
      "type": "event"
    },
    {
      "anonymous": false,
      "inputs": [
        {
          "indexed": true,
          "internalType": "bytes32",
          "name": "keyHash",
          "type": "bytes32"
        },
        {
          "indexed": false,
          "internalType": "uint256",
          "name": "requestId",
          "type": "uint256"
        },
        {
          "indexed": false,
          "internalType": "uint256",
          "name": "preSeed",
          "type": "uint256"
        },
        {
          "indexed": true,
          "internalType": "uint64",
          "name": "subId",
          "type": "uint64"
        },
        {
          "indexed": false,
          "internalType": "uint16",
          "name": "minimumRequestConfirmations",
          "type": "uint16"
        },
        {
          "indexed": false,
          "internalType": "uint32",
          "name": "callbackGasLimit",
          "type": "uint32"
        },
        {
          "indexed": false,
          "internalType": "uint32",
          "name": "numWords",
          "type": "uint32"
        },
        {
          "indexed": true,
          "internalType": "address",
          "name": "sender",
          "type": "address"
        }
      ],
      "name": "RandomWordsRequested",
      "type": "event"
    },
    {
      "anonymous": false,
      "inputs": [
        {
          "indexed": true,
          "internalType": "uint64",
          "name": "subId",
          "type": "uint64"
        },
        {
          "indexed": false,
          "internalType": "address",
          "name": "to",
          "type": "address"
        },
        {
          "indexed": false,
          "internalType": "uint256",
          "name": "amount",
          "type": "uint256"
        }
      ],
      "name": "SubscriptionCanceled",
      "type": "event"
    },
    {
      "anonymous": false,
      "inputs": [
        {
          "indexed": true,
          "internalType": "uint64",
          "name": "subId",
          "type": "uint64"
        },
        {
          "indexed": true,
          "internalType": "address",
          "name": "owner",
          "type": "address"
        }
      ],
      "name": "SubscriptionCreated",
      "type": "event"
    },
    {
      "anonymous": false,
      "inputs": [
        {
          "indexed": true,
          "internalType": "uint64",
          "name": "subId",
          "type": "uint64"
        },
        {
          "indexed": false,
          "internalType": "uint256",
          "name": "oldBalance",
          "type": "uint256"
        },
        {
          "indexed": false,
          "internalType": "uint256",
          "name": "newBalance",
          "type": "uint256"
        }
      ],
      "name": "SubscriptionFunded",
      "type": "event"
    },
    {
      "inputs": [],
      "name": "BASE_FEE",
      "outputs": [
        {
          "internalType": "uint96",
          "name": "",
          "type": "uint96"
        }
      ],
      "stateMutability": "view",
      "type": "function"
    },
    {
      "inputs": [],
      "name": "GAS_PRICE_LINK",
      "outputs": [
        {
          "internalType": "uint96",
          "name": "",
          "type": "uint96"
        }
      ],
      "stateMutability": "view",
      "type": "function"
    },
    {
      "inputs": [],
      "name": "MAX_CONSUMERS",
      "outputs": [
        {
          "internalType": "uint16",
          "name": "",
          "type": "uint16"
        }
      ],
      "stateMutability": "view",
      "type": "function"
    },
    {
      "inputs": [],
      "name": "acceptOwnership",
      "outputs": [],
      "stateMutability": "nonpayable",
      "type": "function"
    },
    {
      "inputs": [
        {
          "internalType": "uint64",
          "name": "",
          "type": "uint64"
        }
      ],
      "name": "acceptSubscriptionOwnerTransfer",
      "outputs": [],
      "stateMutability": "pure",
      "type": "function"
    },
    {
      "inputs": [
        {
          "internalType": "uint64",
          "name": "_subId",
          "type": "uint64"
        },
        {
          "internalType": "address",
          "name": "_consumer",
          "type": "address"
        }
      ],
      "name": "addConsumer",
      "outputs": [],
      "stateMutability": "nonpayable",
      "type": "function"
    },
    {
      "inputs": [
        {
          "internalType": "uint64",
          "name": "_subId",
          "type": "uint64"
        },
        {
          "internalType": "address",
          "name": "_to",
          "type": "address"
        }
      ],
      "name": "cancelSubscription",
      "outputs": [],
      "stateMutability": "nonpayable",
      "type": "function"
    },
    {
      "inputs": [
        {
          "internalType": "uint64",
          "name": "_subId",
          "type": "uint64"
        },
        {
          "internalType": "address",
          "name": "_consumer",
          "type": "address"
        }
      ],
      "name": "consumerIsAdded",
      "outputs": [
        {
          "internalType": "bool",
          "name": "",
          "type": "bool"
        }
      ],
      "stateMutability": "view",
      "type": "function"
    },
    {
      "inputs": [],
      "name": "createSubscription",
      "outputs": [
        {
          "internalType": "uint64",
          "name": "_subId",
          "type": "uint64"
        }
      ],
      "stateMutability": "nonpayable",
      "type": "function"
    },
    {
      "inputs": [
        {
          "internalType": "uint256",
          "name": "_requestId",
          "type": "uint256"
        },
        {
          "internalType": "address",
          "name": "_consumer",
          "type": "address"
        }
      ],
      "name": "fulfillRandomWords",
      "outputs": [],
      "stateMutability": "nonpayable",
      "type": "function"
    },
    {
      "inputs": [
        {
          "internalType": "uint256",
          "name": "_requestId",
          "type": "uint256"
        },
        {
          "internalType": "address",
          "name": "_consumer",
          "type": "address"
        },
        {
          "internalType": "uint256[]",
          "name": "_words",
          "type": "uint256[]"
        }
      ],
      "name": "fulfillRandomWordsWithOverride",
      "outputs": [],
      "stateMutability": "nonpayable",
      "type": "function"
    },
    {
      "inputs": [
        {
          "internalType": "uint64",
          "name": "_subId",
          "type": "uint64"
        },
        {
          "internalType": "uint96",
          "name": "_amount",
          "type": "uint96"
        }
      ],
      "name": "fundSubscription",
      "outputs": [],
      "stateMutability": "nonpayable",
      "type": "function"
    },
    {
      "inputs": [],
      "name": "getConfig",
      "outputs": [
        {
          "internalType": "uint16",
          "name": "minimumRequestConfirmations",
          "type": "uint16"
        },
        {
          "internalType": "uint32",
          "name": "maxGasLimit",
          "type": "uint32"
        },
        {
          "internalType": "uint32",
          "name": "stalenessSeconds",
          "type": "uint32"
        },
        {
          "internalType": "uint32",
          "name": "gasAfterPaymentCalculation",
          "type": "uint32"
        }
      ],
      "stateMutability": "pure",
      "type": "function"
    },
    {
      "inputs": [],
      "name": "getFallbackWeiPerUnitLink",
      "outputs": [
        {
          "internalType": "int256",
          "name": "",
          "type": "int256"
        }
      ],
      "stateMutability": "pure",
      "type": "function"
    },
    {
      "inputs": [],
      "name": "getFeeConfig",
      "outputs": [
        {
          "internalType": "uint32",
          "name": "fulfillmentFlatFeeLinkPPMTier1",
          "type": "uint32"
        },
        {
          "internalType": "uint32",
          "name": "fulfillmentFlatFeeLinkPPMTier2",
          "type": "uint32"
        },
        {
          "internalType": "uint32",
          "name": "fulfillmentFlatFeeLinkPPMTier3",
          "type": "uint32"
        },
        {
          "internalType": "uint32",
          "name": "fulfillmentFlatFeeLinkPPMTier4",
          "type": "uint32"
        },
        {
          "internalType": "uint32",
          "name": "fulfillmentFlatFeeLinkPPMTier5",
          "type": "uint32"
        },
        {
          "internalType": "uint24",
          "name": "reqsForTier2",
          "type": "uint24"
        },
        {
          "internalType": "uint24",
          "name": "reqsForTier3",
          "type": "uint24"
        },
        {
          "internalType": "uint24",
          "name": "reqsForTier4",
          "type": "uint24"
        },
        {
          "internalType": "uint24",
          "name": "reqsForTier5",
          "type": "uint24"
        }
      ],
      "stateMutability": "pure",
      "type": "function"
    },
    {
      "inputs": [],
      "name": "getRequestConfig",
      "outputs": [
        {
          "internalType": "uint16",
          "name": "",
          "type": "uint16"
        },
        {
          "internalType": "uint32",
          "name": "",
          "type": "uint32"
        },
        {
          "internalType": "bytes32[]",
          "name": "",
          "type": "bytes32[]"
        }
      ],
      "stateMutability": "pure",
      "type": "function"
    },
    {
      "inputs": [
        {
          "internalType": "uint64",
          "name": "_subId",
          "type": "uint64"
        }
      ],
      "name": "getSubscription",
      "outputs": [
        {
          "internalType": "uint96",
          "name": "balance",
          "type": "uint96"
        },
        {
          "internalType": "uint64",
          "name": "reqCount",
          "type": "uint64"
        },
        {
          "internalType": "address",
          "name": "owner",
          "type": "address"
        },
        {
          "internalType": "address[]",
          "name": "consumers",
          "type": "address[]"
        }
      ],
      "stateMutability": "view",
      "type": "function"
    },
    {
      "inputs": [],
      "name": "owner",
      "outputs": [
        {
          "internalType": "address",
          "name": "",
          "type": "address"
        }
      ],
      "stateMutability": "view",
      "type": "function"
    },
    {
      "inputs": [
        {
          "internalType": "uint64",
          "name": "",
          "type": "uint64"
        }
      ],
      "name": "pendingRequestExists",
      "outputs": [
        {
          "internalType": "bool",
          "name": "",
          "type": "bool"
        }
      ],
      "stateMutability": "pure",
      "type": "function"
    },
    {
      "inputs": [
        {
          "internalType": "uint64",
          "name": "_subId",
          "type": "uint64"
        },
        {
          "internalType": "address",
          "name": "_consumer",
          "type": "address"
        }
      ],
      "name": "removeConsumer",
      "outputs": [],
      "stateMutability": "nonpayable",
      "type": "function"
    },
    {
      "inputs": [
        {
          "internalType": "bytes32",
          "name": "_keyHash",
          "type": "bytes32"
        },
        {
          "internalType": "uint64",
          "name": "_subId",
          "type": "uint64"
        },
        {
          "internalType": "uint16",
          "name": "_minimumRequestConfirmations",
          "type": "uint16"
        },
        {
          "internalType": "uint32",
          "name": "_callbackGasLimit",
          "type": "uint32"
        },
        {
          "internalType": "uint32",
          "name": "_numWords",
          "type": "uint32"
        }
      ],
      "name": "requestRandomWords",
      "outputs": [
        {
          "internalType": "uint256",
          "name": "",
          "type": "uint256"
        }
      ],
      "stateMutability": "nonpayable",
      "type": "function"
    },
    {
      "inputs": [
        {
          "internalType": "uint64",
          "name": "",
          "type": "uint64"
        },
        {
          "internalType": "address",
          "name": "",
          "type": "address"
        }
      ],
      "name": "requestSubscriptionOwnerTransfer",
      "outputs": [],
      "stateMutability": "pure",
      "type": "function"
    },
    {
      "inputs": [],
      "name": "setConfig",
      "outputs": [],
      "stateMutability": "nonpayable",
      "type": "function"
    },
    {
      "inputs": [
        {
          "internalType": "address",
          "name": "to",
          "type": "address"
        }
      ],
      "name": "transferOwnership",
      "outputs": [],
      "stateMutability": "nonpayable",
      "type": "function"
    }
  ],
  "transactionHash": "0x25b221c613589cbc17265430d6f219157cee7494fcbf9aa285641554b6033553",
  "args": [
    "250000000000000000",
    1000000000
  ],
  "numDeployments": 1,
  "solcInputHash": "a7a179744e3b55e4aec0384e8bdf3bef",
  "bytecode": "0x60e0604052606461ffff1660c09061ffff16815250600160045560646005553480156200002b57600080fd5b506040516200397b3803806200397b833981810160405281019062000051919062000435565b338060008073ffffffffffffffffffffffffffffffffffffffff168273ffffffffffffffffffffffffffffffffffffffff1603620000c6576040517f08c379a0000000000000000000000000000000000000000000000000000000008152600401620000bd90620004dd565b60405180910390fd5b816000806101000a81548173ffffffffffffffffffffffffffffffffffffffff021916908373ffffffffffffffffffffffffffffffffffffffff160217905550600073ffffffffffffffffffffffffffffffffffffffff168173ffffffffffffffffffffffffffffffffffffffff16146200014d576200014c81620001b060201b60201c565b5b505050816bffffffffffffffffffffffff166080816bffffffffffffffffffffffff1681525050806bffffffffffffffffffffffff1660a0816bffffffffffffffffffffffff1681525050620001a8620002df60201b60201c565b5050620005e3565b3373ffffffffffffffffffffffffffffffffffffffff168173ffffffffffffffffffffffffffffffffffffffff160362000221576040517f08c379a000000000000000000000000000000000000000000000000000000000815260040162000218906200054f565b60405180910390fd5b80600160006101000a81548173ffffffffffffffffffffffffffffffffffffffff021916908373ffffffffffffffffffffffffffffffffffffffff1602179055508073ffffffffffffffffffffffffffffffffffffffff1660008054906101000a900473ffffffffffffffffffffffffffffffffffffffff1673ffffffffffffffffffffffffffffffffffffffff167fed8889f560326eb138920d842192f0eb3dd22b4f139c87a2c57538e05bae127860405160405180910390a350565b620002ef6200035460201b60201c565b604051806020016040528060001515815250600260008201518160000160006101000a81548160ff0219169083151502179055509050507f4b2974a542484cba2783812ff8033f7fc682cac2fe0905c28c5e27869b3155be60405160405180910390a1565b60008054906101000a900473ffffffffffffffffffffffffffffffffffffffff1673ffffffffffffffffffffffffffffffffffffffff163373ffffffffffffffffffffffffffffffffffffffff1614620003e5576040517f08c379a0000000000000000000000000000000000000000000000000000000008152600401620003dc90620005c1565b60405180910390fd5b565b600080fd5b60006bffffffffffffffffffffffff82169050919050565b6200040f81620003ec565b81146200041b57600080fd5b50565b6000815190506200042f8162000404565b92915050565b600080604083850312156200044f576200044e620003e7565b5b60006200045f858286016200041e565b925050602062000472858286016200041e565b9150509250929050565b600082825260208201905092915050565b7f43616e6e6f7420736574206f776e657220746f207a65726f0000000000000000600082015250565b6000620004c56018836200047c565b9150620004d2826200048d565b602082019050919050565b60006020820190508181036000830152620004f881620004b6565b9050919050565b7f43616e6e6f74207472616e7366657220746f2073656c66000000000000000000600082015250565b6000620005376017836200047c565b91506200054482620004ff565b602082019050919050565b600060208201905081810360008301526200056a8162000528565b9050919050565b7f4f6e6c792063616c6c61626c65206279206f776e657200000000000000000000600082015250565b6000620005a96016836200047c565b9150620005b68262000571565b602082019050919050565b60006020820190508181036000830152620005dc816200059a565b9050919050565b60805160a05160c0516133536200062860003960008181610dae0152610ef801526000818161084d01526118dc0152600081816108920152610aa101526133536000f3fe608060405234801561001057600080fd5b50600436106101575760003560e01c80638b673e7a116100c3578063afc69b531161007c578063afc69b5314610375578063c3f909d414610391578063d7ae1d30146103b2578063e82ad7d4146103ce578063ed5eb06d146103fe578063f2fde38b1461042e57610157565b80638b673e7a146102c25780638da5cb5b146102cc5780639f87fad7146102ea578063a21a23e414610306578063a410347f14610324578063a47c76961461034257610157565b80635fbbc0d2116101155780635fbbc0d21461022057806364d51a2a146102465780637341c10c1461026457806379ba509714610280578063808974ff1461028a57806382359740146102a657610157565b80620122911461015c57806304c357cb1461017c57806308e3898e14610198578063356dac71146101b45780633d18651e146101d25780635d3b1d30146101f0575b600080fd5b61016461044a565b60405161017393929190612399565b60405180910390f35b61019660048036038101906101919190612489565b6104aa565b005b6101b260048036038101906101ad9190612658565b6104e5565b005b6101bc610a90565b6040516101c991906126e0565b60405180910390f35b6101da610a9f565b6040516101e79190612722565b60405180910390f35b61020a600480360381019061020591906127c1565b610ac3565b604051610217919061284b565b60405180910390f35b610228610d6d565b60405161023d99989796959493929190612884565b60405180910390f35b61024e610dac565b60405161025b9190612911565b60405180910390f35b61027e60048036038101906102799190612489565b610dd0565b005b61028861105c565b005b6102a4600480360381019061029f919061292c565b6111f1565b005b6102c060048036038101906102bb919061296c565b611293565b005b6102ca6112ce565b005b6102d461133b565b6040516102e191906129a8565b60405180910390f35b61030460048036038101906102ff9190612489565b611364565b005b61030e611713565b60405161031b91906129d2565b60405180910390f35b61032c6118da565b6040516103399190612722565b60405180910390f35b61035c6004803603810190610357919061296c565b6118fe565b60405161036c9493929190612aab565b60405180910390f35b61038f600480360381019061038a9190612b23565b611b03565b005b610399611ccd565b6040516103a99493929190612b63565b60405180910390f35b6103cc60048036038101906103c79190612489565b611ced565b005b6103e860048036038101906103e3919061296c565b611f59565b6040516103f59190612bc3565b60405180910390f35b61041860048036038101906104139190612489565b611f96565b6040516104259190612bc3565b60405180910390f35b61044860048036038101906104439190612bde565b6120c5565b005b60008060606003621e8480600067ffffffffffffffff8111156104705761046f612515565b5b60405190808252806020026020018201604052801561049e5781602001602082028036833780820191505090505b50925092509250909192565b6040517f08c379a00000000000000000000000000000000000000000000000000000000081526004016104dc90612c68565b60405180910390fd5b60005a905060006008600086815260200190815260200160002060000160009054906101000a900467ffffffffffffffff1667ffffffffffffffff1603610561576040517f08c379a000000000000000000000000000000000000000000000000000000000815260040161055890612cd4565b60405180910390fd5b6000600860008681526020019081526020016000206040518060600160405290816000820160009054906101000a900467ffffffffffffffff1667ffffffffffffffff1667ffffffffffffffff1681526020016000820160089054906101000a900463ffffffff1663ffffffff1663ffffffff16815260200160008201600c9054906101000a900463ffffffff1663ffffffff1663ffffffff1681525050905060008351036106d257806040015163ffffffff1667ffffffffffffffff81111561062e5761062d612515565b5b60405190808252806020026020018201604052801561065c5781602001602082028036833780820191505090505b50925060005b816040015163ffffffff168110156106cc578581604051602001610687929190612cf4565b6040516020818303038152906040528051906020012060001c8482815181106106b3576106b2612d1d565b5b6020026020010181815250508080600101915050610662565b50610717565b806040015163ffffffff16835114610716576040517f3f3df5b600000000000000000000000000000000000000000000000000000000815260040160405180910390fd5b5b600080631fe543e360e01b8786604051602401610735929190612e0a565b604051602081830303815290604052907bffffffffffffffffffffffffffffffffffffffffffffffffffffffff19166020820180517bffffffffffffffffffffffffffffffffffffffffffffffffffffffff838183161783525050505090506001600260000160006101000a81548160ff02191690831515021790555060008673ffffffffffffffffffffffffffffffffffffffff16846020015163ffffffff16836040516107e49190612eab565b60006040518083038160008787f1925050503d8060008114610822576040519150601f19603f3d011682016040523d82523d6000602084013e610827565b606091505b505090506000600260000160006101000a81548160ff02191690831515021790555060007f00000000000000000000000000000000000000000000000000000000000000006bffffffffffffffffffffffff165a876108869190612ef1565b6108909190612f25565b7f00000000000000000000000000000000000000000000000000000000000000006bffffffffffffffffffffffff166108c99190612f67565b9050806bffffffffffffffffffffffff1660066000876000015167ffffffffffffffff1667ffffffffffffffff16815260200190815260200160002060000160149054906101000a90046bffffffffffffffffffffffff166bffffffffffffffffffffffff161015610967576040517ff4d678b800000000000000000000000000000000000000000000000000000000815260040160405180910390fd5b8060066000876000015167ffffffffffffffff1667ffffffffffffffff16815260200190815260200160002060000160148282829054906101000a90046bffffffffffffffffffffffff166109bc9190612f9b565b92506101000a8154816bffffffffffffffffffffffff02191690836bffffffffffffffffffffffff160217905550600860008a8152602001908152602001600020600080820160006101000a81549067ffffffffffffffff02191690556000820160086101000a81549063ffffffff021916905560008201600c6101000a81549063ffffffff02191690555050887f7dffc5ae5ee4e2e4df1651cf6ad329a73cebdb728f37ea0187b9b17e036756e48a8385604051610a7d93929190612fdb565b60405180910390a2505050505050505050565b6000660e35fa931a0000905090565b7f000000000000000000000000000000000000000000000000000000000000000081565b6000600260000160009054906101000a900460ff1615610b0f576040517fed3ba6a600000000000000000000000000000000000000000000000000000000815260040160405180910390fd5b8433610b1b8282611f96565b610b51576040517f71e8313700000000000000000000000000000000000000000000000000000000815260040160405180910390fd5b600073ffffffffffffffffffffffffffffffffffffffff16600660008967ffffffffffffffff1667ffffffffffffffff16815260200190815260200160002060000160009054906101000a900473ffffffffffffffffffffffffffffffffffffffff1673ffffffffffffffffffffffffffffffffffffffff1603610c01576040517f1f6a65b600000000000000000000000000000000000000000000000000000000815260040160405180910390fd5b600060046000815480929190610c1690613012565b919050559050600060056000815480929190610c3190613012565b91905055905060405180606001604052808a67ffffffffffffffff1681526020018863ffffffff1681526020018763ffffffff168152506008600084815260200190815260200160002060008201518160000160006101000a81548167ffffffffffffffff021916908367ffffffffffffffff16021790555060208201518160000160086101000a81548163ffffffff021916908363ffffffff160217905550604082015181600001600c6101000a81548163ffffffff021916908363ffffffff1602179055509050503373ffffffffffffffffffffffffffffffffffffffff168967ffffffffffffffff168b7f63373d1c4696214b898952999c9aaec57dac1ee2723cec59bea6888f489a977285858d8d8d604051610d5595949392919061305a565b60405180910390a48194505050505095945050505050565b6000806000806000806000806000620186a080620186a080620186a0600080600080985098509850985098509850985098509850909192939495969798565b7f000000000000000000000000000000000000000000000000000000000000000081565b816000600660008367ffffffffffffffff1667ffffffffffffffff16815260200190815260200160002060000160009054906101000a900473ffffffffffffffffffffffffffffffffffffffff169050600073ffffffffffffffffffffffffffffffffffffffff168173ffffffffffffffffffffffffffffffffffffffff1603610e86576040517f1f6a65b600000000000000000000000000000000000000000000000000000000815260040160405180910390fd5b8073ffffffffffffffffffffffffffffffffffffffff163373ffffffffffffffffffffffffffffffffffffffff1614610ef657806040517fd8a3fb52000000000000000000000000000000000000000000000000000000008152600401610eed91906129a8565b60405180910390fd5b7f000000000000000000000000000000000000000000000000000000000000000061ffff16600760008667ffffffffffffffff1667ffffffffffffffff1681526020019081526020016000208054905003610f7d576040517f05a48e0f00000000000000000000000000000000000000000000000000000000815260040160405180910390fd5b610f878484611f96565b61105657600760008567ffffffffffffffff1667ffffffffffffffff168152602001908152602001600020839080600181540180825580915050600190039060005260206000200160009091909190916101000a81548173ffffffffffffffffffffffffffffffffffffffff021916908373ffffffffffffffffffffffffffffffffffffffff1602179055508367ffffffffffffffff167f752ead9f4536ec1319ee3a5a604e1d65eded22e0924251552ba14ae4faa1bbc38460405161104d91906129a8565b60405180910390a25b50505050565b600160009054906101000a900473ffffffffffffffffffffffffffffffffffffffff1673ffffffffffffffffffffffffffffffffffffffff163373ffffffffffffffffffffffffffffffffffffffff16146110ec576040517f08c379a00000000000000000000000000000000000000000000000000000000081526004016110e3906130f9565b60405180910390fd5b60008060009054906101000a900473ffffffffffffffffffffffffffffffffffffffff169050336000806101000a81548173ffffffffffffffffffffffffffffffffffffffff021916908373ffffffffffffffffffffffffffffffffffffffff1602179055506000600160006101000a81548173ffffffffffffffffffffffffffffffffffffffff021916908373ffffffffffffffffffffffffffffffffffffffff1602179055503373ffffffffffffffffffffffffffffffffffffffff168173ffffffffffffffffffffffffffffffffffffffff167f8be0079c531659141344cd1fd0a4f28419497f9722a3daafe3b4186f6b6457e060405160405180910390a350565b600260000160009054906101000a900460ff161561123b576040517fed3ba6a600000000000000000000000000000000000000000000000000000000815260040160405180910390fd5b61128f8282600067ffffffffffffffff81111561125b5761125a612515565b5b6040519080825280602002602001820160405280156112895781602001602082028036833780820191505090505b506104e5565b5050565b6040517f08c379a00000000000000000000000000000000000000000000000000000000081526004016112c590612c68565b60405180910390fd5b6112d66120d9565b604051806020016040528060001515815250600260008201518160000160006101000a81548160ff0219169083151502179055509050507f4b2974a542484cba2783812ff8033f7fc682cac2fe0905c28c5e27869b3155be60405160405180910390a1565b60008060009054906101000a900473ffffffffffffffffffffffffffffffffffffffff16905090565b816000600660008367ffffffffffffffff1667ffffffffffffffff16815260200190815260200160002060000160009054906101000a900473ffffffffffffffffffffffffffffffffffffffff169050600073ffffffffffffffffffffffffffffffffffffffff168173ffffffffffffffffffffffffffffffffffffffff160361141a576040517f1f6a65b600000000000000000000000000000000000000000000000000000000815260040160405180910390fd5b8073ffffffffffffffffffffffffffffffffffffffff163373ffffffffffffffffffffffffffffffffffffffff161461148a57806040517fd8a3fb5200000000000000000000000000000000000000000000000000000000815260040161148191906129a8565b60405180910390fd5b83836114968282611f96565b6114cc576040517f71e8313700000000000000000000000000000000000000000000000000000000815260040160405180910390fd5b600260000160009054906101000a900460ff1615611516576040517fed3ba6a600000000000000000000000000000000000000000000000000000000815260040160405180910390fd5b6000600760008867ffffffffffffffff1667ffffffffffffffff168152602001908152602001600020905060005b81805490508110156116c7578673ffffffffffffffffffffffffffffffffffffffff1682828154811061157a57611579612d1d565b5b9060005260206000200160009054906101000a900473ffffffffffffffffffffffffffffffffffffffff1673ffffffffffffffffffffffffffffffffffffffff16036116ba57600082600184805490506115d49190612ef1565b815481106115e5576115e4612d1d565b5b9060005260206000200160009054906101000a900473ffffffffffffffffffffffffffffffffffffffff1690508083838154811061162657611625612d1d565b5b9060005260206000200160006101000a81548173ffffffffffffffffffffffffffffffffffffffff021916908373ffffffffffffffffffffffffffffffffffffffff1602179055508280548061167f5761167e613119565b5b6001900381819060005260206000200160006101000a81549073ffffffffffffffffffffffffffffffffffffffff02191690559055506116c7565b8080600101915050611544565b508667ffffffffffffffff167ff9bc9d5b5733d904409def43a5ecc888dbdac9a95687780d8fd489d3bb3813fc8760405161170291906129a8565b60405180910390a250505050505050565b60006003600081819054906101000a900467ffffffffffffffff168092919061173b90613148565b91906101000a81548167ffffffffffffffff021916908367ffffffffffffffff1602179055505060405180604001604052803373ffffffffffffffffffffffffffffffffffffffff16815260200160006bffffffffffffffffffffffff1681525060066000600360009054906101000a900467ffffffffffffffff1667ffffffffffffffff1667ffffffffffffffff16815260200190815260200160002060008201518160000160006101000a81548173ffffffffffffffffffffffffffffffffffffffff021916908373ffffffffffffffffffffffffffffffffffffffff16021790555060208201518160000160146101000a8154816bffffffffffffffffffffffff02191690836bffffffffffffffffffffffff1602179055509050503373ffffffffffffffffffffffffffffffffffffffff16600360009054906101000a900467ffffffffffffffff1667ffffffffffffffff167f464722b4166576d3dcbba877b999bc35cf911f4eaf434b7eba68fa113951d0bf60405160405180910390a3600360009054906101000a900467ffffffffffffffff16905090565b7f000000000000000000000000000000000000000000000000000000000000000081565b60008060006060600073ffffffffffffffffffffffffffffffffffffffff16600660008767ffffffffffffffff1667ffffffffffffffff16815260200190815260200160002060000160009054906101000a900473ffffffffffffffffffffffffffffffffffffffff1673ffffffffffffffffffffffffffffffffffffffff16036119b5576040517f1f6a65b600000000000000000000000000000000000000000000000000000000815260040160405180910390fd5b600660008667ffffffffffffffff1667ffffffffffffffff16815260200190815260200160002060000160149054906101000a90046bffffffffffffffffffffffff166000600660008867ffffffffffffffff1667ffffffffffffffff16815260200190815260200160002060000160009054906101000a900473ffffffffffffffffffffffffffffffffffffffff16600760008967ffffffffffffffff1667ffffffffffffffff16815260200190815260200160002080805480602002602001604051908101604052809291908181526020018280548015611aed57602002820191906000526020600020905b8160009054906101000a900473ffffffffffffffffffffffffffffffffffffffff1673ffffffffffffffffffffffffffffffffffffffff1681526020019060010190808311611aa3575b5050505050905093509350935093509193509193565b600073ffffffffffffffffffffffffffffffffffffffff16600660008467ffffffffffffffff1667ffffffffffffffff16815260200190815260200160002060000160009054906101000a900473ffffffffffffffffffffffffffffffffffffffff1673ffffffffffffffffffffffffffffffffffffffff1603611bb3576040517f1f6a65b600000000000000000000000000000000000000000000000000000000815260040160405180910390fd5b6000600660008467ffffffffffffffff1667ffffffffffffffff16815260200190815260200160002060000160149054906101000a90046bffffffffffffffffffffffff16905081600660008567ffffffffffffffff1667ffffffffffffffff16815260200190815260200160002060000160148282829054906101000a90046bffffffffffffffffffffffff16611c4b9190613178565b92506101000a8154816bffffffffffffffffffffffff02191690836bffffffffffffffffffffffff1602179055508267ffffffffffffffff167fd39ec07f4e209f627a4c427971473820dc129761ba28de8906bd56f57101d4f8828484611cb29190613178565b604051611cc09291906131f3565b60405180910390a2505050565b6000806000806004622625a0610a8c618205935093509350935090919293565b816000600660008367ffffffffffffffff1667ffffffffffffffff16815260200190815260200160002060000160009054906101000a900473ffffffffffffffffffffffffffffffffffffffff169050600073ffffffffffffffffffffffffffffffffffffffff168173ffffffffffffffffffffffffffffffffffffffff1603611da3576040517f1f6a65b600000000000000000000000000000000000000000000000000000000815260040160405180910390fd5b8073ffffffffffffffffffffffffffffffffffffffff163373ffffffffffffffffffffffffffffffffffffffff1614611e1357806040517fd8a3fb52000000000000000000000000000000000000000000000000000000008152600401611e0a91906129a8565b60405180910390fd5b600260000160009054906101000a900460ff1615611e5d576040517fed3ba6a600000000000000000000000000000000000000000000000000000000815260040160405180910390fd5b8367ffffffffffffffff167fe8ed5b475a5b5987aa9165e8731bb78043f39eee32ec5a1169a89e27fcd4981584600660008867ffffffffffffffff1667ffffffffffffffff16815260200190815260200160002060000160149054906101000a90046bffffffffffffffffffffffff16604051611edb92919061321c565b60405180910390a2600660008567ffffffffffffffff1667ffffffffffffffff168152602001908152602001600020600080820160006101000a81549073ffffffffffffffffffffffffffffffffffffffff02191690556000820160146101000a8154906bffffffffffffffffffffffff0219169055505050505050565b60006040517f08c379a0000000000000000000000000000000000000000000000000000000008152600401611f8d90612c68565b60405180910390fd5b600080600760008567ffffffffffffffff1667ffffffffffffffff16815260200190815260200160002080548060200260200160405190810160405280929190818152602001828054801561204057602002820191906000526020600020905b8160009054906101000a900473ffffffffffffffffffffffffffffffffffffffff1673ffffffffffffffffffffffffffffffffffffffff1681526020019060010190808311611ff6575b5050505050905060005b81518110156120b8578373ffffffffffffffffffffffffffffffffffffffff1682828151811061207d5761207c612d1d565b5b602002602001015173ffffffffffffffffffffffffffffffffffffffff16036120ab576001925050506120bf565b808060010191505061204a565b5060009150505b92915050565b6120cd6120d9565b6120d681612169565b50565b60008054906101000a900473ffffffffffffffffffffffffffffffffffffffff1673ffffffffffffffffffffffffffffffffffffffff163373ffffffffffffffffffffffffffffffffffffffff1614612167576040517f08c379a000000000000000000000000000000000000000000000000000000000815260040161215e90613291565b60405180910390fd5b565b3373ffffffffffffffffffffffffffffffffffffffff168173ffffffffffffffffffffffffffffffffffffffff16036121d7576040517f08c379a00000000000000000000000000000000000000000000000000000000081526004016121ce906132fd565b60405180910390fd5b80600160006101000a81548173ffffffffffffffffffffffffffffffffffffffff021916908373ffffffffffffffffffffffffffffffffffffffff1602179055508073ffffffffffffffffffffffffffffffffffffffff1660008054906101000a900473ffffffffffffffffffffffffffffffffffffffff1673ffffffffffffffffffffffffffffffffffffffff167fed8889f560326eb138920d842192f0eb3dd22b4f139c87a2c57538e05bae127860405160405180910390a350565b600061ffff82169050919050565b6122ac81612295565b82525050565b600063ffffffff82169050919050565b6122cb816122b2565b82525050565b600081519050919050565b600082825260208201905092915050565b6000819050602082019050919050565b6000819050919050565b612310816122fd565b82525050565b60006123228383612307565b60208301905092915050565b6000602082019050919050565b6000612346826122d1565b61235081856122dc565b935061235b836122ed565b8060005b8381101561238c5781516123738882612316565b975061237e8361232e565b92505060018101905061235f565b5085935050505092915050565b60006060820190506123ae60008301866122a3565b6123bb60208301856122c2565b81810360408301526123cd818461233b565b9050949350505050565b6000604051905090565b600080fd5b600080fd5b600067ffffffffffffffff82169050919050565b612408816123eb565b811461241357600080fd5b50565b600081359050612425816123ff565b92915050565b600073ffffffffffffffffffffffffffffffffffffffff82169050919050565b60006124568261242b565b9050919050565b6124668161244b565b811461247157600080fd5b50565b6000813590506124838161245d565b92915050565b600080604083850312156124a05761249f6123e1565b5b60006124ae85828601612416565b92505060206124bf85828601612474565b9150509250929050565b6000819050919050565b6124dc816124c9565b81146124e757600080fd5b50565b6000813590506124f9816124d3565b92915050565b600080fd5b6000601f19601f8301169050919050565b7f4e487b7100000000000000000000000000000000000000000000000000000000600052604160045260246000fd5b61254d82612504565b810181811067ffffffffffffffff8211171561256c5761256b612515565b5b80604052505050565b600061257f6123d7565b905061258b8282612544565b919050565b600067ffffffffffffffff8211156125ab576125aa612515565b5b602082029050602081019050919050565b600080fd5b60006125d46125cf84612590565b612575565b905080838252602082019050602084028301858111156125f7576125f66125bc565b5b835b81811015612620578061260c88826124ea565b8452602084019350506020810190506125f9565b5050509392505050565b600082601f83011261263f5761263e6124ff565b5b813561264f8482602086016125c1565b91505092915050565b600080600060608486031215612671576126706123e1565b5b600061267f868287016124ea565b935050602061269086828701612474565b925050604084013567ffffffffffffffff8111156126b1576126b06123e6565b5b6126bd8682870161262a565b9150509250925092565b6000819050919050565b6126da816126c7565b82525050565b60006020820190506126f560008301846126d1565b92915050565b60006bffffffffffffffffffffffff82169050919050565b61271c816126fb565b82525050565b60006020820190506127376000830184612713565b92915050565b612746816122fd565b811461275157600080fd5b50565b6000813590506127638161273d565b92915050565b61277281612295565b811461277d57600080fd5b50565b60008135905061278f81612769565b92915050565b61279e816122b2565b81146127a957600080fd5b50565b6000813590506127bb81612795565b92915050565b600080600080600060a086880312156127dd576127dc6123e1565b5b60006127eb88828901612754565b95505060206127fc88828901612416565b945050604061280d88828901612780565b935050606061281e888289016127ac565b925050608061282f888289016127ac565b9150509295509295909350565b612845816124c9565b82525050565b6000602082019050612860600083018461283c565b92915050565b600062ffffff82169050919050565b61287e81612866565b82525050565b60006101208201905061289a600083018c6122c2565b6128a7602083018b6122c2565b6128b4604083018a6122c2565b6128c160608301896122c2565b6128ce60808301886122c2565b6128db60a0830187612875565b6128e860c0830186612875565b6128f560e0830185612875565b612903610100830184612875565b9a9950505050505050505050565b600060208201905061292660008301846122a3565b92915050565b60008060408385031215612943576129426123e1565b5b6000612951858286016124ea565b925050602061296285828601612474565b9150509250929050565b600060208284031215612982576129816123e1565b5b600061299084828501612416565b91505092915050565b6129a28161244b565b82525050565b60006020820190506129bd6000830184612999565b92915050565b6129cc816123eb565b82525050565b60006020820190506129e760008301846129c3565b92915050565b600081519050919050565b600082825260208201905092915050565b6000819050602082019050919050565b612a228161244b565b82525050565b6000612a348383612a19565b60208301905092915050565b6000602082019050919050565b6000612a58826129ed565b612a6281856129f8565b9350612a6d83612a09565b8060005b83811015612a9e578151612a858882612a28565b9750612a9083612a40565b925050600181019050612a71565b5085935050505092915050565b6000608082019050612ac06000830187612713565b612acd60208301866129c3565b612ada6040830185612999565b8181036060830152612aec8184612a4d565b905095945050505050565b612b00816126fb565b8114612b0b57600080fd5b50565b600081359050612b1d81612af7565b92915050565b60008060408385031215612b3a57612b396123e1565b5b6000612b4885828601612416565b9250506020612b5985828601612b0e565b9150509250929050565b6000608082019050612b7860008301876122a3565b612b8560208301866122c2565b612b9260408301856122c2565b612b9f60608301846122c2565b95945050505050565b60008115159050919050565b612bbd81612ba8565b82525050565b6000602082019050612bd86000830184612bb4565b92915050565b600060208284031215612bf457612bf36123e1565b5b6000612c0284828501612474565b91505092915050565b600082825260208201905092915050565b7f6e6f7420696d706c656d656e7465640000000000000000000000000000000000600082015250565b6000612c52600f83612c0b565b9150612c5d82612c1c565b602082019050919050565b60006020820190508181036000830152612c8181612c45565b9050919050565b7f6e6f6e6578697374656e74207265717565737400000000000000000000000000600082015250565b6000612cbe601383612c0b565b9150612cc982612c88565b602082019050919050565b60006020820190508181036000830152612ced81612cb1565b9050919050565b6000604082019050612d09600083018561283c565b612d16602083018461283c565b9392505050565b7f4e487b7100000000000000000000000000000000000000000000000000000000600052603260045260246000fd5b600081519050919050565b600082825260208201905092915050565b6000819050602082019050919050565b612d81816124c9565b82525050565b6000612d938383612d78565b60208301905092915050565b6000602082019050919050565b6000612db782612d4c565b612dc18185612d57565b9350612dcc83612d68565b8060005b83811015612dfd578151612de48882612d87565b9750612def83612d9f565b925050600181019050612dd0565b5085935050505092915050565b6000604082019050612e1f600083018561283c565b8181036020830152612e318184612dac565b90509392505050565b600081519050919050565b600081905092915050565b60005b83811015612e6e578082015181840152602081019050612e53565b60008484015250505050565b6000612e8582612e3a565b612e8f8185612e45565b9350612e9f818560208601612e50565b80840191505092915050565b6000612eb78284612e7a565b915081905092915050565b7f4e487b7100000000000000000000000000000000000000000000000000000000600052601160045260246000fd5b6000612efc826124c9565b9150612f07836124c9565b9250828203905081811115612f1f57612f1e612ec2565b5b92915050565b6000612f30826124c9565b9150612f3b836124c9565b9250828202612f49816124c9565b91508282048414831517612f6057612f5f612ec2565b5b5092915050565b6000612f72826124c9565b9150612f7d836124c9565b9250828201905080821115612f9557612f94612ec2565b5b92915050565b6000612fa6826126fb565b9150612fb1836126fb565b925082820390506bffffffffffffffffffffffff811115612fd557612fd4612ec2565b5b92915050565b6000606082019050612ff0600083018661283c565b612ffd6020830185612713565b61300a6040830184612bb4565b949350505050565b600061301d826124c9565b91507fffffffffffffffffffffffffffffffffffffffffffffffffffffffffffffffff820361304f5761304e612ec2565b5b600182019050919050565b600060a08201905061306f600083018861283c565b61307c602083018761283c565b61308960408301866122a3565b61309660608301856122c2565b6130a360808301846122c2565b9695505050505050565b7f4d7573742062652070726f706f736564206f776e657200000000000000000000600082015250565b60006130e3601683612c0b565b91506130ee826130ad565b602082019050919050565b60006020820190508181036000830152613112816130d6565b9050919050565b7f4e487b7100000000000000000000000000000000000000000000000000000000600052603160045260246000fd5b6000613153826123eb565b915067ffffffffffffffff820361316d5761316c612ec2565b5b600182019050919050565b6000613183826126fb565b915061318e836126fb565b925082820190506bffffffffffffffffffffffff8111156131b2576131b1612ec2565b5b92915050565b6000819050919050565b60006131dd6131d86131d3846126fb565b6131b8565b6124c9565b9050919050565b6131ed816131c2565b82525050565b600060408201905061320860008301856131e4565b61321560208301846131e4565b9392505050565b60006040820190506132316000830185612999565b61323e60208301846131e4565b9392505050565b7f4f6e6c792063616c6c61626c65206279206f776e657200000000000000000000600082015250565b600061327b601683612c0b565b915061328682613245565b602082019050919050565b600060208201905081810360008301526132aa8161326e565b9050919050565b7f43616e6e6f74207472616e7366657220746f2073656c66000000000000000000600082015250565b60006132e7601783612c0b565b91506132f2826132b1565b602082019050919050565b60006020820190508181036000830152613316816132da565b905091905056fea2646970667358221220b0bcce64f6ab4b234e2456c4de0565ac430731f9c7000e9dfffb3a6f4fcb164164736f6c63430008180033",
  "devdoc": {
    "kind": "dev",
    "methods": {
      "createSubscription()": {
        "details": "You can manage the consumer set dynamically with addConsumer/removeConsumer.Note to fund the subscription, use transferAndCall. For exampleLINKTOKEN.transferAndCall(address(COORDINATOR),amount,abi.encode(subId));",
        "returns": {
          "_subId": "- A unique subscription id."
        }
      },
      "fulfillRandomWords(uint256,address)": {
        "details": "This mock uses a simplified formula for calculating payment amount and gas usage, and doesnot account for all edge cases handled in the real VRF coordinator. When making requestsagainst the real coordinator a small amount of additional LINK is required.",
        "params": {
          "_consumer": "the VRF randomness consumer to send the result to",
          "_requestId": "the request to fulfill"
        }
      },
      "fulfillRandomWordsWithOverride(uint256,address,uint256[])": {
        "params": {
          "_consumer": "the VRF randomness consumer to send the result to",
          "_requestId": "the request to fulfill",
          "_words": "user-provided random words"
        }
      },
      "fundSubscription(uint64,uint96)": {
        "params": {
          "_amount": "the amount to fund",
          "_subId": "the subscription to fund"
        }
      },
      "getRequestConfig()": {
        "returns": {
          "_0": "minimumRequestConfirmations global min for request confirmations",
          "_1": "maxGasLimit global max for request gas limit",
          "_2": "s_provingKeyHashes list of registered key hashes"
        }
      }
    },
    "version": 1
  },
  "userdoc": {
    "kind": "user",
    "methods": {
      "acceptOwnership()": {
        "notice": "Allows an ownership transfer to be completed by the recipient."
      },
      "createSubscription()": {
        "notice": "Create a VRF subscription."
      },
      "fulfillRandomWords(uint256,address)": {
        "notice": "fulfillRandomWords fulfills the given request, sending the random words to the suppliedconsumer."
      },
      "fulfillRandomWordsWithOverride(uint256,address,uint256[])": {
        "notice": "fulfillRandomWordsWithOverride allows the user to pass in their own random words."
      },
      "fundSubscription(uint64,uint96)": {
        "notice": "fundSubscription allows funding a subscription with an arbitrary amount for testing."
      },
      "getRequestConfig()": {
        "notice": "Get configuration relevant for making requests"
      },
      "owner()": {
        "notice": "Get the current owner"
      },
      "setConfig()": {
        "notice": "Sets the configuration of the vrfv2 mock coordinator"
      },
      "transferOwnership(address)": {
        "notice": "Allows an owner to begin transferring ownership to a new address."
      }
    },
    "version": 1
  },
  "storageLayout": {
    "storage": [
      {
        "astId": 29,
        "contract": "@chainlink/contracts/src/v0.8/vrf/mocks/VRFCoordinatorV2Mock.sol:VRFCoordinatorV2Mock",
        "label": "s_owner",
        "offset": 0,
        "slot": "0",
        "type": "t_address"
      },
      {
        "astId": 31,
        "contract": "@chainlink/contracts/src/v0.8/vrf/mocks/VRFCoordinatorV2Mock.sol:VRFCoordinatorV2Mock",
        "label": "s_pendingOwner",
        "offset": 0,
        "slot": "1",
        "type": "t_address"
      },
      {
        "astId": 458,
        "contract": "@chainlink/contracts/src/v0.8/vrf/mocks/VRFCoordinatorV2Mock.sol:VRFCoordinatorV2Mock",
        "label": "s_config",
        "offset": 0,
        "slot": "2",
        "type": "t_struct(Config)455_storage"
      },
      {
        "astId": 460,
        "contract": "@chainlink/contracts/src/v0.8/vrf/mocks/VRFCoordinatorV2Mock.sol:VRFCoordinatorV2Mock",
        "label": "s_currentSubId",
        "offset": 0,
        "slot": "3",
        "type": "t_uint64"
      },
      {
        "astId": 463,
        "contract": "@chainlink/contracts/src/v0.8/vrf/mocks/VRFCoordinatorV2Mock.sol:VRFCoordinatorV2Mock",
        "label": "s_nextRequestId",
        "offset": 0,
        "slot": "4",
        "type": "t_uint256"
      },
      {
        "astId": 466,
        "contract": "@chainlink/contracts/src/v0.8/vrf/mocks/VRFCoordinatorV2Mock.sol:VRFCoordinatorV2Mock",
        "label": "s_nextPreSeed",
        "offset": 0,
        "slot": "5",
        "type": "t_uint256"
      },
      {
        "astId": 476,
        "contract": "@chainlink/contracts/src/v0.8/vrf/mocks/VRFCoordinatorV2Mock.sol:VRFCoordinatorV2Mock",
        "label": "s_subscriptions",
        "offset": 0,
        "slot": "6",
        "type": "t_mapping(t_uint64,t_struct(Subscription)471_storage)"
      },
      {
        "astId": 481,
        "contract": "@chainlink/contracts/src/v0.8/vrf/mocks/VRFCoordinatorV2Mock.sol:VRFCoordinatorV2Mock",
        "label": "s_consumers",
        "offset": 0,
        "slot": "7",
        "type": "t_mapping(t_uint64,t_array(t_address)dyn_storage)"
      },
      {
        "astId": 493,
        "contract": "@chainlink/contracts/src/v0.8/vrf/mocks/VRFCoordinatorV2Mock.sol:VRFCoordinatorV2Mock",
        "label": "s_requests",
        "offset": 0,
        "slot": "8",
        "type": "t_mapping(t_uint256,t_struct(Request)488_storage)"
      }
    ],
    "types": {
      "t_address": {
        "encoding": "inplace",
        "label": "address",
        "numberOfBytes": "20"
      },
      "t_array(t_address)dyn_storage": {
        "base": "t_address",
        "encoding": "dynamic_array",
        "label": "address[]",
        "numberOfBytes": "32"
      },
      "t_bool": {
        "encoding": "inplace",
        "label": "bool",
        "numberOfBytes": "1"
      },
      "t_mapping(t_uint256,t_struct(Request)488_storage)": {
        "encoding": "mapping",
        "key": "t_uint256",
        "label": "mapping(uint256 => struct VRFCoordinatorV2Mock.Request)",
        "numberOfBytes": "32",
        "value": "t_struct(Request)488_storage"
      },
      "t_mapping(t_uint64,t_array(t_address)dyn_storage)": {
        "encoding": "mapping",
        "key": "t_uint64",
        "label": "mapping(uint64 => address[])",
        "numberOfBytes": "32",
        "value": "t_array(t_address)dyn_storage"
      },
      "t_mapping(t_uint64,t_struct(Subscription)471_storage)": {
        "encoding": "mapping",
        "key": "t_uint64",
        "label": "mapping(uint64 => struct VRFCoordinatorV2Mock.Subscription)",
        "numberOfBytes": "32",
        "value": "t_struct(Subscription)471_storage"
      },
      "t_struct(Config)455_storage": {
        "encoding": "inplace",
        "label": "struct VRFCoordinatorV2Mock.Config",
        "members": [
          {
            "astId": 454,
            "contract": "@chainlink/contracts/src/v0.8/vrf/mocks/VRFCoordinatorV2Mock.sol:VRFCoordinatorV2Mock",
            "label": "reentrancyLock",
            "offset": 0,
            "slot": "0",
            "type": "t_bool"
          }
        ],
        "numberOfBytes": "32"
      },
      "t_struct(Request)488_storage": {
        "encoding": "inplace",
        "label": "struct VRFCoordinatorV2Mock.Request",
        "members": [
          {
            "astId": 483,
            "contract": "@chainlink/contracts/src/v0.8/vrf/mocks/VRFCoordinatorV2Mock.sol:VRFCoordinatorV2Mock",
            "label": "subId",
            "offset": 0,
            "slot": "0",
            "type": "t_uint64"
          },
          {
            "astId": 485,
            "contract": "@chainlink/contracts/src/v0.8/vrf/mocks/VRFCoordinatorV2Mock.sol:VRFCoordinatorV2Mock",
            "label": "callbackGasLimit",
            "offset": 8,
            "slot": "0",
            "type": "t_uint32"
          },
          {
            "astId": 487,
            "contract": "@chainlink/contracts/src/v0.8/vrf/mocks/VRFCoordinatorV2Mock.sol:VRFCoordinatorV2Mock",
            "label": "numWords",
            "offset": 12,
            "slot": "0",
            "type": "t_uint32"
          }
        ],
        "numberOfBytes": "32"
      },
      "t_struct(Subscription)471_storage": {
        "encoding": "inplace",
        "label": "struct VRFCoordinatorV2Mock.Subscription",
        "members": [
          {
            "astId": 468,
            "contract": "@chainlink/contracts/src/v0.8/vrf/mocks/VRFCoordinatorV2Mock.sol:VRFCoordinatorV2Mock",
            "label": "owner",
            "offset": 0,
            "slot": "0",
            "type": "t_address"
          },
          {
            "astId": 470,
            "contract": "@chainlink/contracts/src/v0.8/vrf/mocks/VRFCoordinatorV2Mock.sol:VRFCoordinatorV2Mock",
            "label": "balance",
            "offset": 20,
            "slot": "0",
            "type": "t_uint96"
          }
        ],
        "numberOfBytes": "32"
      },
      "t_uint256": {
        "encoding": "inplace",
        "label": "uint256",
        "numberOfBytes": "32"
      },
      "t_uint32": {
        "encoding": "inplace",
        "label": "uint32",
        "numberOfBytes": "4"
      },
      "t_uint64": {
        "encoding": "inplace",
        "label": "uint64",
        "numberOfBytes": "8"
      },
      "t_uint96": {
        "encoding": "inplace",
        "label": "uint96",
        "numberOfBytes": "12"
      }
    }
  }
}